{
  "contractName": "tokenTest",
  "abi": [
    {
      "anonymous": false,
      "inputs": [
        {
          "indexed": true,
          "internalType": "address",
          "name": "_owner",
          "type": "address"
        },
        {
          "indexed": true,
          "internalType": "address",
          "name": "_approved",
          "type": "address"
        },
        {
          "indexed": true,
          "internalType": "uint256",
          "name": "_tokenId",
          "type": "uint256"
        }
      ],
      "name": "Approval",
      "type": "event"
    },
    {
      "anonymous": false,
      "inputs": [
        {
          "indexed": true,
          "internalType": "address",
          "name": "_owner",
          "type": "address"
        },
        {
          "indexed": true,
          "internalType": "address",
          "name": "_operator",
          "type": "address"
        },
        {
          "indexed": false,
          "internalType": "bool",
          "name": "_approved",
          "type": "bool"
        }
      ],
      "name": "ApprovalForAll",
      "type": "event"
    },
    {
      "anonymous": false,
      "inputs": [
        {
          "indexed": true,
          "internalType": "address",
          "name": "_from",
          "type": "address"
        },
        {
          "indexed": true,
          "internalType": "address",
          "name": "_to",
          "type": "address"
        },
        {
          "indexed": true,
          "internalType": "uint256",
          "name": "_tokenId",
          "type": "uint256"
        }
      ],
      "name": "Transfer",
      "type": "event"
    },
    {
      "inputs": [
        {
          "internalType": "address",
          "name": "_owner",
          "type": "address"
        }
      ],
      "name": "balanceOf",
      "outputs": [
        {
          "internalType": "uint256",
          "name": "",
          "type": "uint256"
        }
      ],
      "stateMutability": "view",
      "type": "function",
      "constant": true
    },
    {
      "inputs": [
        {
          "internalType": "uint256",
          "name": "_tokenId",
          "type": "uint256"
        }
      ],
      "name": "ownerOf",
      "outputs": [
        {
          "internalType": "address",
          "name": "",
          "type": "address"
        }
      ],
      "stateMutability": "view",
      "type": "function",
      "constant": true
    },
    {
      "inputs": [
        {
          "internalType": "address",
          "name": "_from",
          "type": "address"
        },
        {
          "internalType": "address",
          "name": "_to",
          "type": "address"
        },
        {
          "internalType": "uint256",
          "name": "_tokenId",
          "type": "uint256"
        }
      ],
      "name": "safeTransferFrom",
      "outputs": [],
      "stateMutability": "payable",
      "type": "function",
      "payable": true
    },
    {
      "inputs": [
        {
          "internalType": "address",
          "name": "from",
          "type": "address"
        },
        {
          "internalType": "address",
          "name": "to",
          "type": "address"
        },
        {
          "internalType": "uint256",
          "name": "tokenId",
          "type": "uint256"
        },
        {
          "internalType": "bytes",
          "name": "_data",
          "type": "bytes"
        }
      ],
      "name": "safeTransferFrom",
      "outputs": [],
      "stateMutability": "payable",
      "type": "function",
      "payable": true
    },
    {
      "inputs": [
        {
          "internalType": "address",
          "name": "_from",
          "type": "address"
        },
        {
          "internalType": "address",
          "name": "_to",
          "type": "address"
        },
        {
          "internalType": "uint256",
          "name": "_tokenId",
          "type": "uint256"
        }
      ],
      "name": "transferFrom",
      "outputs": [],
      "stateMutability": "payable",
      "type": "function",
      "payable": true
    },
    {
      "inputs": [
        {
          "internalType": "address",
          "name": "_approveTo",
          "type": "address"
        },
        {
          "internalType": "uint256",
          "name": "_tokenId",
          "type": "uint256"
        }
      ],
      "name": "approve",
      "outputs": [],
      "stateMutability": "payable",
      "type": "function",
      "payable": true
    },
    {
      "inputs": [
        {
          "internalType": "uint256",
          "name": "_tokenId",
          "type": "uint256"
        }
      ],
      "name": "getApproved",
      "outputs": [
        {
          "internalType": "address",
          "name": "",
          "type": "address"
        }
      ],
      "stateMutability": "view",
      "type": "function",
      "constant": true
    },
    {
      "inputs": [
        {
          "internalType": "address",
          "name": "_operator",
          "type": "address"
        },
        {
          "internalType": "bool",
          "name": "_approved",
          "type": "bool"
        }
      ],
      "name": "setApprovalForAll",
      "outputs": [],
      "stateMutability": "nonpayable",
      "type": "function"
    },
    {
      "inputs": [
        {
          "internalType": "address",
          "name": "_owner",
          "type": "address"
        },
        {
          "internalType": "address",
          "name": "_operator",
          "type": "address"
        }
      ],
      "name": "isApprovedForAll",
      "outputs": [
        {
          "internalType": "bool",
          "name": "",
          "type": "bool"
        }
      ],
      "stateMutability": "view",
      "type": "function",
      "constant": true
    },
    {
      "inputs": [
        {
          "internalType": "bytes4",
          "name": "interfaceId",
          "type": "bytes4"
        }
      ],
      "name": "supportsInterface",
      "outputs": [
        {
          "internalType": "bool",
          "name": "",
          "type": "bool"
        }
      ],
      "stateMutability": "view",
      "type": "function",
      "constant": true
    },
    {
      "inputs": [
        {
          "internalType": "address",
          "name": "to",
          "type": "address"
        },
        {
          "internalType": "string",
          "name": "tokenURI",
          "type": "string"
        }
      ],
      "name": "mintToken",
      "outputs": [
        {
          "internalType": "uint256",
          "name": "tokenId",
          "type": "uint256"
        }
      ],
      "stateMutability": "nonpayable",
      "type": "function"
    },
    {
      "inputs": [
        {
          "internalType": "address",
          "name": "to",
          "type": "address"
        }
      ],
      "name": "deleteToken",
      "outputs": [],
      "stateMutability": "nonpayable",
      "type": "function"
    },
    {
      "inputs": [],
      "name": "getTokenID",
      "outputs": [
        {
          "internalType": "uint256",
          "name": "",
          "type": "uint256"
        }
      ],
      "stateMutability": "view",
      "type": "function",
      "constant": true
    },
    {
      "inputs": [
        {
          "internalType": "address",
          "name": "from",
          "type": "address"
        },
        {
          "internalType": "address",
          "name": "to",
          "type": "address"
        },
        {
          "internalType": "uint256",
          "name": "tokenId",
          "type": "uint256"
        },
        {
          "internalType": "bytes",
          "name": "_data",
          "type": "bytes"
        }
      ],
      "name": "_checkOnERC721Received",
      "outputs": [
        {
          "internalType": "bool",
          "name": "",
          "type": "bool"
        }
      ],
      "stateMutability": "view",
      "type": "function",
      "constant": true
    }
  ],
  "bytecode": "0x608060405234801561001057600080fd5b50611dbb806100206000396000f3fe6080604052600436106100dd5760003560e01c80636352211e1161007f578063a22cb46511610059578063a22cb465146102cf578063b88d4fde146102f8578063e985e9c514610314578063f069f71214610351576100dd565b80636352211e1461022a5780636ba367a31461026757806370a0823114610292576100dd565b80631fd01de1116100bb5780631fd01de11461017857806323b872dd146101b55780633d02d0c9146101d157806342842e0e1461020e576100dd565b806301ffc9a7146100e2578063081812fc1461011f578063095ea7b31461015c575b600080fd5b3480156100ee57600080fd5b50610109600480360381019061010491906111ff565b61037a565b6040516101169190611247565b60405180910390f35b34801561012b57600080fd5b5061014660048036038101906101419190611298565b6103e4565b6040516101539190611306565b60405180910390f35b6101766004803603810190610171919061134d565b610421565b005b34801561018457600080fd5b5061019f600480360381019061019a91906114d3565b610535565b6040516101ac9190611247565b60405180910390f35b6101cf60048036038101906101ca9190611556565b61053f565b005b3480156101dd57600080fd5b506101f860048036038101906101f3919061164a565b61054f565b60405161020591906116b5565b60405180910390f35b61022860048036038101906102239190611556565b6107d1565b005b34801561023657600080fd5b50610251600480360381019061024c9190611298565b6107f1565b60405161025e9190611306565b60405180910390f35b34801561027357600080fd5b5061027c6108d6565b60405161028991906116b5565b60405180910390f35b34801561029e57600080fd5b506102b960048036038101906102b491906116d0565b6108e2565b6040516102c691906116b5565b60405180910390f35b3480156102db57600080fd5b506102f660048036038101906102f19190611729565b610949565b005b610312600480360381019061030d91906114d3565b610ab5565b005b34801561032057600080fd5b5061033b60048036038101906103369190611769565b610b10565b6040516103489190611247565b60405180910390f35b34801561035d57600080fd5b50610378600480360381019061037391906116d0565b610ba4565b005b60007f80ac58cd000000000000000000000000000000000000000000000000000000007bffffffffffffffffffffffffffffffffffffffffffffffffffffffff1916827bffffffffffffffffffffffffffffffffffffffffffffffffffffffff1916149050919050565b60006004600083815260200190815260200160002060009054906101000a900473ffffffffffffffffffffffffffffffffffffffff169050919050565b61042a816107f1565b73ffffffffffffffffffffffffffffffffffffffff168273ffffffffffffffffffffffffffffffffffffffff161415610498576040517f08c379a000000000000000000000000000000000000000000000000000000000815260040161048f9061182c565b60405180910390fd5b6104a1816107f1565b73ffffffffffffffffffffffffffffffffffffffff163373ffffffffffffffffffffffffffffffffffffffff1614806104e857506104e76104e1826107f1565b33610b10565b5b610527576040517f08c379a000000000000000000000000000000000000000000000000000000000815260040161051e906118be565b60405180910390fd5b6105318282610cee565b5050565b6000949350505050565b61054a8383836107d1565b505050565b60008060405180604001604052803373ffffffffffffffffffffffffffffffffffffffff1681526020014267ffffffffffffffff168152509050600073ffffffffffffffffffffffffffffffffffffffff168473ffffffffffffffffffffffffffffffffffffffff1614156105c357600080fd5b6000819080600181540180825580915050600190039060005260206000200160009091909190915060008201518160000160006101000a81548173ffffffffffffffffffffffffffffffffffffffff021916908373ffffffffffffffffffffffffffffffffffffffff16021790555060208201518160000160146101000a81548167ffffffffffffffff021916908367ffffffffffffffff16021790555050506000805490509150826001600084815260200190815260200160002090805190602001906106929291906110b0565b506001600360008673ffffffffffffffffffffffffffffffffffffffff1673ffffffffffffffffffffffffffffffffffffffff16815260200190815260200160002060008282829054906101000a900467ffffffffffffffff166106f69190611921565b92506101000a81548167ffffffffffffffff021916908367ffffffffffffffff160217905550836002600084815260200190815260200160002060006101000a81548173ffffffffffffffffffffffffffffffffffffffff021916908373ffffffffffffffffffffffffffffffffffffffff160217905550818473ffffffffffffffffffffffffffffffffffffffff16600073ffffffffffffffffffffffffffffffffffffffff167fddf252ad1be2c89b69c2b068fc378daa952ba7f163c4a11628f55a4df523b3ef60405160405180910390a45092915050565b6107ec83838360405180602001604052806000815250610ab5565b505050565b6000806002600084815260200190815260200160002060009054906101000a900473ffffffffffffffffffffffffffffffffffffffff169050600073ffffffffffffffffffffffffffffffffffffffff168173ffffffffffffffffffffffffffffffffffffffff16141561089a576040517f08c379a0000000000000000000000000000000000000000000000000000000008152600401610891906119ab565b60405180910390fd5b6002600084815260200190815260200160002060009054906101000a900473ffffffffffffffffffffffffffffffffffffffff16915050919050565b60008080549050905090565b6000600360008373ffffffffffffffffffffffffffffffffffffffff1673ffffffffffffffffffffffffffffffffffffffff16815260200190815260200160002060009054906101000a900467ffffffffffffffff1667ffffffffffffffff169050919050565b3373ffffffffffffffffffffffffffffffffffffffff168273ffffffffffffffffffffffffffffffffffffffff1614156109b8576040517f08c379a00000000000000000000000000000000000000000000000000000000081526004016109af90611a17565b60405180910390fd5b80600560003373ffffffffffffffffffffffffffffffffffffffff1673ffffffffffffffffffffffffffffffffffffffff16815260200190815260200160002060008473ffffffffffffffffffffffffffffffffffffffff1673ffffffffffffffffffffffffffffffffffffffff16815260200190815260200160002060006101000a81548160ff0219169083151502179055508173ffffffffffffffffffffffffffffffffffffffff163373ffffffffffffffffffffffffffffffffffffffff167f17307eab39ab6107e8899845ad3d59bd9653f200f220920489ca2b5937696c3183604051610aa99190611247565b60405180910390a35050565b610abf3383610e19565b610afe576040517f08c379a0000000000000000000000000000000000000000000000000000000008152600401610af590611aa9565b60405180910390fd5b610b0a84848484610eb1565b50505050565b6000600560008473ffffffffffffffffffffffffffffffffffffffff1673ffffffffffffffffffffffffffffffffffffffff16815260200190815260200160002060008373ffffffffffffffffffffffffffffffffffffffff1673ffffffffffffffffffffffffffffffffffffffff16815260200190815260200160002060009054906101000a900460ff16905092915050565b6002600080815260200190815260200160002060006101000a81549073ffffffffffffffffffffffffffffffffffffffff02191690556001600360008373ffffffffffffffffffffffffffffffffffffffff1673ffffffffffffffffffffffffffffffffffffffff16815260200190815260200160002060008282829054906101000a900467ffffffffffffffff16610c3d9190611ac9565b92506101000a81548167ffffffffffffffff021916908367ffffffffffffffff1602179055506000805480610c7557610c74611afd565b5b60019003818190600052602060002001600080820160006101000a81549073ffffffffffffffffffffffffffffffffffffffff02191690556000820160146101000a81549067ffffffffffffffff021916905550509055600160008081526020019081526020016000206000610ceb9190611136565b50565b816004600083815260200190815260200160002060006101000a81548173ffffffffffffffffffffffffffffffffffffffff021916908373ffffffffffffffffffffffffffffffffffffffff16021790555060008273ffffffffffffffffffffffffffffffffffffffff163073ffffffffffffffffffffffffffffffffffffffff16636352211e846040518263ffffffff1660e01b8152600401610d9291906116b5565b602060405180830381865afa158015610daf573d6000803e3d6000fd5b505050506040513d601f19601f82011682018060405250810190610dd39190611b41565b73ffffffffffffffffffffffffffffffffffffffff167f8c5be1e5ebec7d5bd14f71427d1e84f3dd0314c0f7b2291e5b200ac8c7c3b92560405160405180910390a45050565b60008273ffffffffffffffffffffffffffffffffffffffff16610e3b836107f1565b73ffffffffffffffffffffffffffffffffffffffff161480610e9057508273ffffffffffffffffffffffffffffffffffffffff16610e78836103e4565b73ffffffffffffffffffffffffffffffffffffffff16145b80610ea95750610ea8610ea2836107f1565b84610b10565b5b905092915050565b610ebc848484610f0d565b610ec884848484610535565b610f07576040517f08c379a0000000000000000000000000000000000000000000000000000000008152600401610efe90611be0565b60405180910390fd5b50505050565b8273ffffffffffffffffffffffffffffffffffffffff16610f2d826107f1565b73ffffffffffffffffffffffffffffffffffffffff1614610f83576040517f08c379a0000000000000000000000000000000000000000000000000000000008152600401610f7a90611c72565b60405180910390fd5b600073ffffffffffffffffffffffffffffffffffffffff168273ffffffffffffffffffffffffffffffffffffffff161415610ff3576040517f08c379a0000000000000000000000000000000000000000000000000000000008152600401610fea90611d04565b60405180910390fd5b610ffe600082610cee565b816002600083815260200190815260200160002060006101000a81548173ffffffffffffffffffffffffffffffffffffffff021916908373ffffffffffffffffffffffffffffffffffffffff160217905550808273ffffffffffffffffffffffffffffffffffffffff168473ffffffffffffffffffffffffffffffffffffffff167fddf252ad1be2c89b69c2b068fc378daa952ba7f163c4a11628f55a4df523b3ef60405160405180910390a4505050565b8280546110bc90611d53565b90600052602060002090601f0160209004810192826110de5760008555611125565b82601f106110f757805160ff1916838001178555611125565b82800160010185558215611125579182015b82811115611124578251825591602001919060010190611109565b5b5090506111329190611176565b5090565b50805461114290611d53565b6000825580601f106111545750611173565b601f0160209004906000526020600020908101906111729190611176565b5b50565b5b8082111561118f576000816000905550600101611177565b5090565b6000604051905090565b600080fd5b600080fd5b60007fffffffff0000000000000000000000000000000000000000000000000000000082169050919050565b6111dc816111a7565b81146111e757600080fd5b50565b6000813590506111f9816111d3565b92915050565b6000602082840312156112155761121461119d565b5b6000611223848285016111ea565b91505092915050565b60008115159050919050565b6112418161122c565b82525050565b600060208201905061125c6000830184611238565b92915050565b6000819050919050565b61127581611262565b811461128057600080fd5b50565b6000813590506112928161126c565b92915050565b6000602082840312156112ae576112ad61119d565b5b60006112bc84828501611283565b91505092915050565b600073ffffffffffffffffffffffffffffffffffffffff82169050919050565b60006112f0826112c5565b9050919050565b611300816112e5565b82525050565b600060208201905061131b60008301846112f7565b92915050565b61132a816112e5565b811461133557600080fd5b50565b60008135905061134781611321565b92915050565b600080604083850312156113645761136361119d565b5b600061137285828601611338565b925050602061138385828601611283565b9150509250929050565b600080fd5b600080fd5b6000601f19601f8301169050919050565b7f4e487b7100000000000000000000000000000000000000000000000000000000600052604160045260246000fd5b6113e082611397565b810181811067ffffffffffffffff821117156113ff576113fe6113a8565b5b80604052505050565b6000611412611193565b905061141e82826113d7565b919050565b600067ffffffffffffffff82111561143e5761143d6113a8565b5b61144782611397565b9050602081019050919050565b82818337600083830152505050565b600061147661147184611423565b611408565b90508281526020810184848401111561149257611491611392565b5b61149d848285611454565b509392505050565b600082601f8301126114ba576114b961138d565b5b81356114ca848260208601611463565b91505092915050565b600080600080608085870312156114ed576114ec61119d565b5b60006114fb87828801611338565b945050602061150c87828801611338565b935050604061151d87828801611283565b925050606085013567ffffffffffffffff81111561153e5761153d6111a2565b5b61154a878288016114a5565b91505092959194509250565b60008060006060848603121561156f5761156e61119d565b5b600061157d86828701611338565b935050602061158e86828701611338565b925050604061159f86828701611283565b9150509250925092565b600067ffffffffffffffff8211156115c4576115c36113a8565b5b6115cd82611397565b9050602081019050919050565b60006115ed6115e8846115a9565b611408565b90508281526020810184848401111561160957611608611392565b5b611614848285611454565b509392505050565b600082601f8301126116315761163061138d565b5b81356116418482602086016115da565b91505092915050565b600080604083850312156116615761166061119d565b5b600061166f85828601611338565b925050602083013567ffffffffffffffff8111156116905761168f6111a2565b5b61169c8582860161161c565b9150509250929050565b6116af81611262565b82525050565b60006020820190506116ca60008301846116a6565b92915050565b6000602082840312156116e6576116e561119d565b5b60006116f484828501611338565b91505092915050565b6117068161122c565b811461171157600080fd5b50565b600081359050611723816116fd565b92915050565b600080604083850312156117405761173f61119d565b5b600061174e85828601611338565b925050602061175f85828601611714565b9150509250929050565b600080604083850312156117805761177f61119d565b5b600061178e85828601611338565b925050602061179f85828601611338565b9150509250929050565b600082825260208201905092915050565b7f4552433732313a20617070726f76616c20746f2063757272656e74206f776e6560008201527f7200000000000000000000000000000000000000000000000000000000000000602082015250565b60006118166021836117a9565b9150611821826117ba565b604082019050919050565b6000602082019050818103600083015261184581611809565b9050919050565b7f4552433732313a20617070726f76652063616c6c6572206973206e6f74206f7760008201527f6e6572206e6f7220617070726f76656420666f7220616c6c0000000000000000602082015250565b60006118a86038836117a9565b91506118b38261184c565b604082019050919050565b600060208201905081810360008301526118d78161189b565b9050919050565b600067ffffffffffffffff82169050919050565b7f4e487b7100000000000000000000000000000000000000000000000000000000600052601160045260246000fd5b600061192c826118de565b9150611937836118de565b92508267ffffffffffffffff03821115611954576119536118f2565b5b828201905092915050565b7f4552433732313a20616472657373203020696e76616c69640000000000000000600082015250565b60006119956018836117a9565b91506119a08261195f565b602082019050919050565b600060208201905081810360008301526119c481611988565b9050919050565b7f4552433732313a20617070726f766520746f2063616c6c657200000000000000600082015250565b6000611a016019836117a9565b9150611a0c826119cb565b602082019050919050565b60006020820190508181036000830152611a30816119f4565b9050919050565b7f4552433732313a207472616e736665722063616c6c6572206973206e6f74206f60008201527f776e6572206e6f7220617070726f766564000000000000000000000000000000602082015250565b6000611a936031836117a9565b9150611a9e82611a37565b604082019050919050565b60006020820190508181036000830152611ac281611a86565b9050919050565b6000611ad4826118de565b9150611adf836118de565b925082821015611af257611af16118f2565b5b828203905092915050565b7f4e487b7100000000000000000000000000000000000000000000000000000000600052603160045260246000fd5b600081519050611b3b81611321565b92915050565b600060208284031215611b5757611b5661119d565b5b6000611b6584828501611b2c565b91505092915050565b7f4552433732313a207472616e7366657220746f206e6f6e20455243373231526560008201527f63656976657220696d706c656d656e7465720000000000000000000000000000602082015250565b6000611bca6032836117a9565b9150611bd582611b6e565b604082019050919050565b60006020820190508181036000830152611bf981611bbd565b9050919050565b7f4552433732313a207472616e73666572206f6620746f6b656e2074686174206960008201527f73206e6f74206f776e0000000000000000000000000000000000000000000000602082015250565b6000611c5c6029836117a9565b9150611c6782611c00565b604082019050919050565b60006020820190508181036000830152611c8b81611c4f565b9050919050565b7f4552433732313a207472616e7366657220746f20746865207a65726f2061646460008201527f7265737300000000000000000000000000000000000000000000000000000000602082015250565b6000611cee6024836117a9565b9150611cf982611c92565b604082019050919050565b60006020820190508181036000830152611d1d81611ce1565b9050919050565b7f4e487b7100000000000000000000000000000000000000000000000000000000600052602260045260246000fd5b60006002820490506001821680611d6b57607f821691505b60208210811415611d7f57611d7e611d24565b5b5091905056fea264697066735822122009c071ec66e7ecb4c06b4a24d496b6acdf1af26f0e6711a78eb926a3b1fb59e764736f6c634300080c0033",
  "immutableReferences": {},
  "source": "pragma solidity ^0.8.0;\r\nimport \"./tokenData.sol\";\r\nimport \"./interfaceERC721.sol\";\r\n\r\ncontract tokenTest is tokenData, ERC721, ERC165 {\r\n    \r\n    function balanceOf(address _owner) public view virtual override returns (uint256){\r\n        return tokenBalance[_owner];\r\n    }\r\n\r\n    function ownerOf(uint256 _tokenId) public view virtual override returns (address){\r\n        address owner = tokenOwner[_tokenId];\r\n        require(owner != address(0), \"ERC721: adress 0 invalid\");\r\n        return tokenOwner[_tokenId];\r\n    }\r\n\r\n    function safeTransferFrom(address _from, address _to, uint256 _tokenId) public virtual payable override {\r\n        safeTransferFrom(_from, _to, _tokenId, \"\");\r\n    }\r\n\r\n    \r\n\r\n    function safeTransferFrom(address from, address to, uint256 tokenId, bytes memory _data) public virtual payable override {\r\n        require(_isApprovedOrOwner(msg.sender, tokenId), \"ERC721: transfer caller is not owner nor approved\");\r\n        _safeTransfer(from, to, tokenId, _data);\r\n    }\r\n\r\n    function transferFrom(address _from, address _to, uint _tokenId) public virtual payable override{\r\n\t\tsafeTransferFrom(_from,_to,_tokenId);\r\n\t}\r\n\r\n    function _safeTransfer(address from, address to, uint256 tokenId, bytes memory _data) internal virtual {\r\n        _transfer(from, to, tokenId);\r\n        require(_checkOnERC721Received(from, to, tokenId, _data), \"ERC721: transfer to non ERC721Receiver implementer\");\r\n    }\r\n\r\n    function _transfer(address from, address to, uint256 tokenId) internal virtual {\r\n        require(ownerOf(tokenId) == from, \"ERC721: transfer of token that is not own\");\r\n        require(to != address(0), \"ERC721: transfer to the zero address\");\r\n        // Clear approvals from the previous owner\r\n        _approve(address(0), tokenId);\r\n       tokenOwner[tokenId] = to;\r\n        emit Transfer(from, to, tokenId);\r\n    }\r\n\r\n    function approve(address _approveTo, uint256 _tokenId) public virtual payable override {\r\n        require(_approveTo != ownerOf(_tokenId) , \"ERC721: approval to current owner\");\r\n\r\n        require(msg.sender == ownerOf(_tokenId) || isApprovedForAll(ownerOf(_tokenId), msg.sender),\r\n            \"ERC721: approve caller is not owner nor approved for all\"\r\n        );\r\n        _approve(_approveTo, _tokenId);\r\n    }\r\n\r\n    function getApproved(uint256 _tokenId) public view virtual override returns (address) {\r\n        return tokenApprovals[_tokenId];\r\n    }\r\n\r\n    function setApprovalForAll(address _operator, bool _approved) public virtual override {\r\n        require(_operator != msg.sender, \"ERC721: approve to caller\");\r\n        operatorApprovals[msg.sender][_operator] = _approved;\r\n        emit ApprovalForAll(msg.sender, _operator, _approved);\r\n    }\r\n\r\n    function isApprovedForAll(address _owner, address _operator) public view virtual override returns (bool){\r\n        return operatorApprovals[_owner][_operator];\r\n    }\r\n\r\n    function _isApprovedOrOwner(address spender, uint256 tokenId) internal view virtual returns (bool) {\r\n        return((ownerOf(tokenId)==spender) || getApproved(tokenId)==spender || isApprovedForAll(ownerOf(tokenId), spender) );\r\n    }\r\n\r\n    function _approve(address to, uint256 tokenId) internal virtual {\r\n        tokenApprovals[tokenId] = to;\r\n        emit Approval(this.ownerOf(tokenId), to, 0);\r\n    }\r\n\r\n    function supportsInterface(bytes4 interfaceId) public view virtual override(ERC165) returns (bool) {\r\n        return interfaceId == type(ERC721).interfaceId;\r\n    }   \r\n\r\n    function mintToken(address to, string memory tokenURI) external returns (uint tokenId) {\r\n\t\tToken memory token = Token({\r\n\t\t\tmintedBy: msg.sender,\r\n\t\t\tmintedAt: uint64(block.timestamp)\r\n    \t});\r\n        require(to != address(0));\r\n        //require(tokenList.length<maxCount, \"\");\r\n\t\ttokenList.push(token);\r\n\t\ttokenId = tokenList.length;\r\n        tokenURIs[tokenId]=tokenURI;\r\n        tokenBalance[to] += 1;\r\n        tokenOwner[tokenId] = to;\r\n        emit Transfer(address(0), to, tokenId);\r\n    } \r\n\r\n    function deleteToken(address to) public {\r\n        delete tokenOwner[0];\r\n        tokenBalance[to] -= 1;\r\n        tokenList.pop();\r\n        delete tokenURIs[0];\r\n\r\n    }\r\n\r\n    function getTokenID() public view returns (uint256){\r\n        return tokenList.length;\r\n    }\r\n\r\n    \r\n\r\n    function _checkOnERC721Received(address from, address to, uint256 tokenId, bytes memory _data) public view returns (bool)\r\n    {\r\n        /*if (to.isContract()) {\r\n            try ERC721TokenReceiver(to).onERC721Received(msg.sender, from, tokenId, _data) returns (bytes4 retval) {\r\n                return retval == ERC721TokenReceiver(to).onERC721Received.selector;\r\n            } catch (bytes memory reason) {\r\n                if (reason.length == 0) {\r\n                    revert(\"ERC721: transfer to non ERC721Receiver implementer\");\r\n                } else {\r\n                    // solhint-disable-next-line no-inline-assembly\r\n                    assembly {\r\n                        revert(add(32, reason), mload(reason))\r\n                    }\r\n                }\r\n            }\r\n        } else {\r\n            return true;\r\n        } \r\n    }\r\n\r\n    library Address {\r\n        function isContract(address account) internal view returns (bool) {\r\n            uint256 size;\r\n            assembly { size := extcodesize(account) }\r\n            return size > 0;\r\n        }*/\r\n    }\r\n}",
  "sourcePath": "C:\\Users\\Administrator\\Desktop\\tokenAccount\\contracts\\tokenTest.sol",
  "compiler": {
    "name": "solc",
    "version": "0.8.12+commit.f00d7308.Emscripten.clang"
  },
  "schemaVersion": "3.4.6",
  "updatedAt": "2022-03-28T08:49:59.965Z",
  "networkType": "ethereum",
  "devdoc": {
    "kind": "dev",
    "methods": {
      "balanceOf(address)": {
        "details": "NFTs assigned to the zero address are considered invalid, and this  function throws for queries about the zero address.",
        "params": {
          "_owner": "An address for whom to query the balance"
        },
        "returns": {
          "_0": "The number of NFTs owned by `_owner`, possibly zero"
        }
      },
      "getApproved(uint256)": {
        "details": "Throws if `_tokenId` is not a valid NFT.",
        "params": {
          "_tokenId": "The NFT to find the approved address for"
        },
        "returns": {
          "_0": "The approved address for this NFT, or the zero address if there is none"
        }
      },
      "isApprovedForAll(address,address)": {
        "params": {
          "_operator": "The address that acts on behalf of the owner",
          "_owner": "The address that owns the NFTs"
        },
        "returns": {
          "_0": "True if `_operator` is an approved operator for `_owner`, false otherwise"
        }
      },
      "ownerOf(uint256)": {
        "details": "NFTs assigned to zero address are considered invalid, and queries  about them do throw.",
        "params": {
          "_tokenId": "The identifier for an NFT"
        },
        "returns": {
          "_0": "The address of the owner of the NFT"
        }
      },
      "safeTransferFrom(address,address,uint256)": {
        "details": "This works identically to the other function with an extra data parameter,  except this function just sets data to \"\".",
        "params": {
          "_from": "The current owner of the NFT",
          "_to": "The new owner",
          "_tokenId": "The NFT to transfer"
        }
      },
      "setApprovalForAll(address,bool)": {
        "details": "Emits the ApprovalForAll event. The contract MUST allow  multiple operators per owner.",
        "params": {
          "_approved": "True if the operator is approved, false to revoke approval",
          "_operator": "Address to add to the set of authorized operators"
        }
      },
      "transferFrom(address,address,uint256)": {
        "details": "Throws unless `msg.sender` is the current owner, an authorized  operator, or the approved address for this NFT. Throws if `_from` is  not the current owner. Throws if `_to` is the zero address. Throws if  `_tokenId` is not a valid NFT.",
        "params": {
          "_from": "The current owner of the NFT",
          "_to": "The new owner",
          "_tokenId": "The NFT to transfer"
        }
      }
    },
    "version": 1
  },
  "userdoc": {
    "kind": "user",
    "methods": {
      "balanceOf(address)": {
        "notice": "Count all NFTs assigned to an owner"
      },
      "getApproved(uint256)": {
        "notice": "Get the approved address for a single NFT"
      },
      "isApprovedForAll(address,address)": {
        "notice": "Query if an address is an authorized operator for another address"
      },
      "ownerOf(uint256)": {
        "notice": "Find the owner of an NFT"
      },
      "safeTransferFrom(address,address,uint256)": {
        "notice": "Transfers the ownership of an NFT from one address to another address"
      },
      "setApprovalForAll(address,bool)": {
        "notice": "Enable or disable approval for a third party (\"operator\") to manage  all of `msg.sender`'s assets"
      },
      "transferFrom(address,address,uint256)": {
        "notice": "Transfer ownership of an NFT -- THE CALLER IS RESPONSIBLE  TO CONFIRM THAT `_to` IS CAPABLE OF RECEIVING NFTS OR ELSE  THEY MAY BE PERMANENTLY LOST"
      }
    },
    "version": 1
  }
}