{
  "contractName": "tokenTest",
  "abi": [
    {
      "anonymous": false,
      "inputs": [
        {
          "indexed": true,
          "internalType": "address",
          "name": "_owner",
          "type": "address"
        },
        {
          "indexed": true,
          "internalType": "address",
          "name": "_approved",
          "type": "address"
        },
        {
          "indexed": true,
          "internalType": "uint256",
          "name": "_tokenId",
          "type": "uint256"
        }
      ],
      "name": "Approval",
      "type": "event"
    },
    {
      "anonymous": false,
      "inputs": [
        {
          "indexed": true,
          "internalType": "address",
          "name": "_owner",
          "type": "address"
        },
        {
          "indexed": true,
          "internalType": "address",
          "name": "_operator",
          "type": "address"
        },
        {
          "indexed": false,
          "internalType": "bool",
          "name": "_approved",
          "type": "bool"
        }
      ],
      "name": "ApprovalForAll",
      "type": "event"
    },
    {
      "anonymous": false,
      "inputs": [
        {
          "indexed": true,
          "internalType": "address",
          "name": "_from",
          "type": "address"
        },
        {
          "indexed": true,
          "internalType": "address",
          "name": "_to",
          "type": "address"
        },
        {
          "indexed": true,
          "internalType": "uint256",
          "name": "_tokenId",
          "type": "uint256"
        }
      ],
      "name": "Transfer",
      "type": "event"
    },
    {
      "inputs": [],
      "name": "getVersion",
      "outputs": [
        {
          "internalType": "string",
          "name": "",
          "type": "string"
        }
      ],
      "stateMutability": "pure",
      "type": "function"
    },
    {
      "inputs": [],
      "name": "getName",
      "outputs": [
        {
          "internalType": "string",
          "name": "",
          "type": "string"
        }
      ],
      "stateMutability": "pure",
      "type": "function"
    },
    {
      "inputs": [
        {
          "internalType": "address",
          "name": "_owner",
          "type": "address"
        }
      ],
      "name": "balanceOf",
      "outputs": [
        {
          "internalType": "uint256",
          "name": "",
          "type": "uint256"
        }
      ],
      "stateMutability": "view",
      "type": "function"
    },
    {
      "inputs": [
        {
          "internalType": "uint256",
          "name": "_tokenId",
          "type": "uint256"
        }
      ],
      "name": "ownerOf",
      "outputs": [
        {
          "internalType": "address",
          "name": "",
          "type": "address"
        }
      ],
      "stateMutability": "view",
      "type": "function"
    },
    {
      "inputs": [
        {
          "internalType": "address",
          "name": "_from",
          "type": "address"
        },
        {
          "internalType": "address",
          "name": "_to",
          "type": "address"
        },
        {
          "internalType": "uint256",
          "name": "_tokenId",
          "type": "uint256"
        }
      ],
      "name": "safeTransferFrom",
      "outputs": [],
      "stateMutability": "payable",
      "type": "function"
    },
    {
      "inputs": [
        {
          "internalType": "address",
          "name": "from",
          "type": "address"
        },
        {
          "internalType": "address",
          "name": "to",
          "type": "address"
        },
        {
          "internalType": "uint256",
          "name": "tokenId",
          "type": "uint256"
        },
        {
          "internalType": "bytes",
          "name": "_data",
          "type": "bytes"
        }
      ],
      "name": "safeTransferFrom",
      "outputs": [],
      "stateMutability": "payable",
      "type": "function"
    },
    {
      "inputs": [
        {
          "internalType": "address",
          "name": "_from",
          "type": "address"
        },
        {
          "internalType": "address",
          "name": "_to",
          "type": "address"
        },
        {
          "internalType": "uint256",
          "name": "_tokenId",
          "type": "uint256"
        }
      ],
      "name": "transferFrom",
      "outputs": [],
      "stateMutability": "payable",
      "type": "function"
    },
    {
      "inputs": [
        {
          "internalType": "address",
          "name": "_approveTo",
          "type": "address"
        },
        {
          "internalType": "uint256",
          "name": "_tokenId",
          "type": "uint256"
        }
      ],
      "name": "approve",
      "outputs": [],
      "stateMutability": "payable",
      "type": "function"
    },
    {
      "inputs": [
        {
          "internalType": "uint256",
          "name": "_tokenId",
          "type": "uint256"
        }
      ],
      "name": "getApproved",
      "outputs": [
        {
          "internalType": "address",
          "name": "",
          "type": "address"
        }
      ],
      "stateMutability": "view",
      "type": "function"
    },
    {
      "inputs": [
        {
          "internalType": "address",
          "name": "_operator",
          "type": "address"
        },
        {
          "internalType": "bool",
          "name": "_approved",
          "type": "bool"
        }
      ],
      "name": "setApprovalForAll",
      "outputs": [],
      "stateMutability": "nonpayable",
      "type": "function"
    },
    {
      "inputs": [
        {
          "internalType": "address",
          "name": "_owner",
          "type": "address"
        },
        {
          "internalType": "address",
          "name": "_operator",
          "type": "address"
        }
      ],
      "name": "isApprovedForAll",
      "outputs": [
        {
          "internalType": "bool",
          "name": "",
          "type": "bool"
        }
      ],
      "stateMutability": "view",
      "type": "function"
    },
    {
      "inputs": [
        {
          "internalType": "bytes4",
          "name": "interfaceId",
          "type": "bytes4"
        }
      ],
      "name": "supportsInterface",
      "outputs": [
        {
          "internalType": "bool",
          "name": "",
          "type": "bool"
        }
      ],
      "stateMutability": "view",
      "type": "function"
    },
    {
      "inputs": [
        {
          "internalType": "address",
          "name": "to",
          "type": "address"
        },
        {
          "internalType": "string",
          "name": "tokenURI",
          "type": "string"
        }
      ],
      "name": "mintToken",
      "outputs": [
        {
          "internalType": "uint256",
          "name": "tokenId",
          "type": "uint256"
        }
      ],
      "stateMutability": "nonpayable",
      "type": "function"
    },
    {
      "inputs": [
        {
          "internalType": "address",
          "name": "to",
          "type": "address"
        }
      ],
      "name": "resetTokens",
      "outputs": [],
      "stateMutability": "nonpayable",
      "type": "function"
    },
    {
      "inputs": [
        {
          "internalType": "address",
          "name": "owner",
          "type": "address"
        }
      ],
      "name": "getURIs",
      "outputs": [
        {
          "internalType": "string",
          "name": "",
          "type": "string"
        }
      ],
      "stateMutability": "view",
      "type": "function"
    },
    {
      "inputs": [
        {
          "internalType": "address",
          "name": "owner",
          "type": "address"
        }
      ],
      "name": "getURIList",
      "outputs": [
        {
          "internalType": "string[]",
          "name": "",
          "type": "string[]"
        }
      ],
      "stateMutability": "view",
      "type": "function"
    },
    {
      "inputs": [],
      "name": "getTokenID",
      "outputs": [
        {
          "internalType": "uint256",
          "name": "",
          "type": "uint256"
        }
      ],
      "stateMutability": "view",
      "type": "function"
    },
    {
      "inputs": [
        {
          "internalType": "address",
          "name": "from",
          "type": "address"
        },
        {
          "internalType": "address",
          "name": "to",
          "type": "address"
        },
        {
          "internalType": "uint256",
          "name": "tokenId",
          "type": "uint256"
        },
        {
          "internalType": "bytes",
          "name": "_data",
          "type": "bytes"
        }
      ],
      "name": "_checkOnERC721Received",
      "outputs": [
        {
          "internalType": "bool",
          "name": "",
          "type": "bool"
        }
      ],
      "stateMutability": "view",
      "type": "function"
    }
  ],
  "bytecode": "0x608060405234801561001057600080fd5b50612590806100206000396000f3fe6080604052600436106101095760003560e01c806346d0a4aa1161009557806370a082311161006457806370a082311461037a5780637fcb2989146103b7578063a22cb465146103f4578063b88d4fde1461041d578063e985e9c51461043957610109565b806346d0a4aa146102ac5780634802693d146102d55780636352211e146103125780636ba367a31461034f57610109565b806317d7de7c116100dc57806317d7de7c146101cf5780631fd01de1146101fa57806323b872dd146102375780633d02d0c91461025357806342842e0e1461029057610109565b806301ffc9a71461010e578063081812fc1461014b578063095ea7b3146101885780630d8e6e2c146101a4575b600080fd5b34801561011a57600080fd5b50610135600480360381019061013091906116a6565b610476565b60405161014291906116ee565b60405180910390f35b34801561015757600080fd5b50610172600480360381019061016d919061173f565b6104e0565b60405161017f91906117ad565b60405180910390f35b6101a2600480360381019061019d91906117f4565b61051d565b005b3480156101b057600080fd5b506101b9610631565b6040516101c691906118cd565b60405180910390f35b3480156101db57600080fd5b506101e461066e565b6040516101f191906118cd565b60405180910390f35b34801561020657600080fd5b50610221600480360381019061021c9190611a24565b6106ab565b60405161022e91906116ee565b60405180910390f35b610251600480360381019061024c9190611aa7565b6106b5565b005b34801561025f57600080fd5b5061027a60048036038101906102759190611b9b565b6106c5565b6040516102879190611c06565b60405180910390f35b6102aa60048036038101906102a59190611aa7565b6109c0565b005b3480156102b857600080fd5b506102d360048036038101906102ce9190611c21565b6109e0565b005b3480156102e157600080fd5b506102fc60048036038101906102f79190611c21565b610b9c565b60405161030991906118cd565b60405180910390f35b34801561031e57600080fd5b506103396004803603810190610334919061173f565b610c85565b60405161034691906117ad565b60405180910390f35b34801561035b57600080fd5b50610364610d6a565b6040516103719190611c06565b60405180910390f35b34801561038657600080fd5b506103a1600480360381019061039c9190611c21565b610d76565b6040516103ae9190611c06565b60405180910390f35b3480156103c357600080fd5b506103de60048036038101906103d99190611c21565b610ddd565b6040516103eb9190611d5a565b60405180910390f35b34801561040057600080fd5b5061041b60048036038101906104169190611da8565b610ef5565b005b61043760048036038101906104329190611a24565b611061565b005b34801561044557600080fd5b50610460600480360381019061045b9190611de8565b6110bc565b60405161046d91906116ee565b60405180910390f35b60007f80ac58cd000000000000000000000000000000000000000000000000000000007bffffffffffffffffffffffffffffffffffffffffffffffffffffffff1916827bffffffffffffffffffffffffffffffffffffffffffffffffffffffff1916149050919050565b60006005600083815260200190815260200160002060009054906101000a900473ffffffffffffffffffffffffffffffffffffffff169050919050565b61052681610c85565b73ffffffffffffffffffffffffffffffffffffffff168273ffffffffffffffffffffffffffffffffffffffff161415610594576040517f08c379a000000000000000000000000000000000000000000000000000000000815260040161058b90611e9a565b60405180910390fd5b61059d81610c85565b73ffffffffffffffffffffffffffffffffffffffff163373ffffffffffffffffffffffffffffffffffffffff1614806105e457506105e36105dd82610c85565b336110bc565b5b610623576040517f08c379a000000000000000000000000000000000000000000000000000000000815260040161061a90611f2c565b60405180910390fd5b61062d8282611150565b5050565b60606040518060400160405280600381526020017f302e370000000000000000000000000000000000000000000000000000000000815250905090565b60606040518060400160405280600981526020017f746f6b656e546573740000000000000000000000000000000000000000000000815250905090565b6000949350505050565b6106c08383836109c0565b505050565b60008060405180604001604052803373ffffffffffffffffffffffffffffffffffffffff1681526020014267ffffffffffffffff168152509050600073ffffffffffffffffffffffffffffffffffffffff168473ffffffffffffffffffffffffffffffffffffffff16141561073957600080fd5b6000819080600181540180825580915050600190039060005260206000200160009091909190915060008201518160000160006101000a81548173ffffffffffffffffffffffffffffffffffffffff021916908373ffffffffffffffffffffffffffffffffffffffff16021790555060208201518160000160146101000a81548167ffffffffffffffff021916908367ffffffffffffffff1602179055505050600080549050915082600260008481526020019081526020016000209080519060200190610808929190611512565b50600160008573ffffffffffffffffffffffffffffffffffffffff1673ffffffffffffffffffffffffffffffffffffffff16815260200190815260200160002083908060018154018082558091505060019003906000526020600020016000909190919091509080519060200190610881929190611512565b506001600460008673ffffffffffffffffffffffffffffffffffffffff1673ffffffffffffffffffffffffffffffffffffffff16815260200190815260200160002060008282829054906101000a900467ffffffffffffffff166108e59190611f8f565b92506101000a81548167ffffffffffffffff021916908367ffffffffffffffff160217905550836003600084815260200190815260200160002060006101000a81548173ffffffffffffffffffffffffffffffffffffffff021916908373ffffffffffffffffffffffffffffffffffffffff160217905550818473ffffffffffffffffffffffffffffffffffffffff16600073ffffffffffffffffffffffffffffffffffffffff167fddf252ad1be2c89b69c2b068fc378daa952ba7f163c4a11628f55a4df523b3ef60405160405180910390a45092915050565b6109db83838360405180602001604052806000815250611061565b505050565b6000808054905090505b6000811115610b4d576000805480610a0557610a04611fcd565b5b60019003818190600052602060002001600080820160006101000a81549073ffffffffffffffffffffffffffffffffffffffff02191690556000820160146101000a81549067ffffffffffffffff021916905550509055600260008281526020019081526020016000206000610a7b9190611598565b6001600460008473ffffffffffffffffffffffffffffffffffffffff1673ffffffffffffffffffffffffffffffffffffffff16815260200190815260200160002060008282829054906101000a900467ffffffffffffffff16610ade9190611ffc565b92506101000a81548167ffffffffffffffff021916908367ffffffffffffffff1602179055506003600082815260200190815260200160002060006101000a81549073ffffffffffffffffffffffffffffffffffffffff02191690558080610b4590612030565b9150506109ea565b50600160008273ffffffffffffffffffffffffffffffffffffffff1673ffffffffffffffffffffffffffffffffffffffff1681526020019081526020016000206000610b9991906115d8565b50565b606060006040518060200160405280600081525090506000600190505b6000805490508111610c7b578373ffffffffffffffffffffffffffffffffffffffff166003600083815260200190815260200160002060009054906101000a900473ffffffffffffffffffffffffffffffffffffffff1673ffffffffffffffffffffffffffffffffffffffff161415610c67578160026000838152602001908152602001600020604051602001610c5192919061218b565b6040516020818303038152906040529150610c68565b5b8080610c73906121af565b915050610bb9565b5080915050919050565b6000806003600084815260200190815260200160002060009054906101000a900473ffffffffffffffffffffffffffffffffffffffff169050600073ffffffffffffffffffffffffffffffffffffffff168173ffffffffffffffffffffffffffffffffffffffff161415610d2e576040517f08c379a0000000000000000000000000000000000000000000000000000000008152600401610d2590612244565b60405180910390fd5b6003600084815260200190815260200160002060009054906101000a900473ffffffffffffffffffffffffffffffffffffffff16915050919050565b60008080549050905090565b6000600460008373ffffffffffffffffffffffffffffffffffffffff1673ffffffffffffffffffffffffffffffffffffffff16815260200190815260200160002060009054906101000a900467ffffffffffffffff1667ffffffffffffffff169050919050565b6060600160008373ffffffffffffffffffffffffffffffffffffffff1673ffffffffffffffffffffffffffffffffffffffff168152602001908152602001600020805480602002602001604051908101604052809291908181526020016000905b82821015610eea578382906000526020600020018054610e5d906120c5565b80601f0160208091040260200160405190810160405280929190818152602001828054610e89906120c5565b8015610ed65780601f10610eab57610100808354040283529160200191610ed6565b820191906000526020600020905b815481529060010190602001808311610eb957829003601f168201915b505050505081526020019060010190610e3e565b505050509050919050565b3373ffffffffffffffffffffffffffffffffffffffff168273ffffffffffffffffffffffffffffffffffffffff161415610f64576040517f08c379a0000000000000000000000000000000000000000000000000000000008152600401610f5b906122b0565b60405180910390fd5b80600660003373ffffffffffffffffffffffffffffffffffffffff1673ffffffffffffffffffffffffffffffffffffffff16815260200190815260200160002060008473ffffffffffffffffffffffffffffffffffffffff1673ffffffffffffffffffffffffffffffffffffffff16815260200190815260200160002060006101000a81548160ff0219169083151502179055508173ffffffffffffffffffffffffffffffffffffffff163373ffffffffffffffffffffffffffffffffffffffff167f17307eab39ab6107e8899845ad3d59bd9653f200f220920489ca2b5937696c318360405161105591906116ee565b60405180910390a35050565b61106b338361127b565b6110aa576040517f08c379a00000000000000000000000000000000000000000000000000000000081526004016110a190612342565b60405180910390fd5b6110b684848484611313565b50505050565b6000600660008473ffffffffffffffffffffffffffffffffffffffff1673ffffffffffffffffffffffffffffffffffffffff16815260200190815260200160002060008373ffffffffffffffffffffffffffffffffffffffff1673ffffffffffffffffffffffffffffffffffffffff16815260200190815260200160002060009054906101000a900460ff16905092915050565b816005600083815260200190815260200160002060006101000a81548173ffffffffffffffffffffffffffffffffffffffff021916908373ffffffffffffffffffffffffffffffffffffffff16021790555060008273ffffffffffffffffffffffffffffffffffffffff163073ffffffffffffffffffffffffffffffffffffffff16636352211e846040518263ffffffff1660e01b81526004016111f49190611c06565b602060405180830381865afa158015611211573d6000803e3d6000fd5b505050506040513d601f19601f820116820180604052508101906112359190612377565b73ffffffffffffffffffffffffffffffffffffffff167f8c5be1e5ebec7d5bd14f71427d1e84f3dd0314c0f7b2291e5b200ac8c7c3b92560405160405180910390a45050565b60008273ffffffffffffffffffffffffffffffffffffffff1661129d83610c85565b73ffffffffffffffffffffffffffffffffffffffff1614806112f257508273ffffffffffffffffffffffffffffffffffffffff166112da836104e0565b73ffffffffffffffffffffffffffffffffffffffff16145b8061130b575061130a61130483610c85565b846110bc565b5b905092915050565b61131e84848461136f565b61132a848484846106ab565b611369576040517f08c379a000000000000000000000000000000000000000000000000000000000815260040161136090612416565b60405180910390fd5b50505050565b8273ffffffffffffffffffffffffffffffffffffffff1661138f82610c85565b73ffffffffffffffffffffffffffffffffffffffff16146113e5576040517f08c379a00000000000000000000000000000000000000000000000000000000081526004016113dc906124a8565b60405180910390fd5b600073ffffffffffffffffffffffffffffffffffffffff168273ffffffffffffffffffffffffffffffffffffffff161415611455576040517f08c379a000000000000000000000000000000000000000000000000000000000815260040161144c9061253a565b60405180910390fd5b611460600082611150565b816003600083815260200190815260200160002060006101000a81548173ffffffffffffffffffffffffffffffffffffffff021916908373ffffffffffffffffffffffffffffffffffffffff160217905550808273ffffffffffffffffffffffffffffffffffffffff168473ffffffffffffffffffffffffffffffffffffffff167fddf252ad1be2c89b69c2b068fc378daa952ba7f163c4a11628f55a4df523b3ef60405160405180910390a4505050565b82805461151e906120c5565b90600052602060002090601f0160209004810192826115405760008555611587565b82601f1061155957805160ff1916838001178555611587565b82800160010185558215611587579182015b8281111561158657825182559160200191906001019061156b565b5b50905061159491906115f9565b5090565b5080546115a4906120c5565b6000825580601f106115b657506115d5565b601f0160209004906000526020600020908101906115d491906115f9565b5b50565b50805460008255906000526020600020908101906115f69190611616565b50565b5b808211156116125760008160009055506001016115fa565b5090565b5b80821115611636576000818161162d9190611598565b50600101611617565b5090565b6000604051905090565b600080fd5b600080fd5b60007fffffffff0000000000000000000000000000000000000000000000000000000082169050919050565b6116838161164e565b811461168e57600080fd5b50565b6000813590506116a08161167a565b92915050565b6000602082840312156116bc576116bb611644565b5b60006116ca84828501611691565b91505092915050565b60008115159050919050565b6116e8816116d3565b82525050565b600060208201905061170360008301846116df565b92915050565b6000819050919050565b61171c81611709565b811461172757600080fd5b50565b60008135905061173981611713565b92915050565b60006020828403121561175557611754611644565b5b60006117638482850161172a565b91505092915050565b600073ffffffffffffffffffffffffffffffffffffffff82169050919050565b60006117978261176c565b9050919050565b6117a78161178c565b82525050565b60006020820190506117c2600083018461179e565b92915050565b6117d18161178c565b81146117dc57600080fd5b50565b6000813590506117ee816117c8565b92915050565b6000806040838503121561180b5761180a611644565b5b6000611819858286016117df565b925050602061182a8582860161172a565b9150509250929050565b600081519050919050565b600082825260208201905092915050565b60005b8381101561186e578082015181840152602081019050611853565b8381111561187d576000848401525b50505050565b6000601f19601f8301169050919050565b600061189f82611834565b6118a9818561183f565b93506118b9818560208601611850565b6118c281611883565b840191505092915050565b600060208201905081810360008301526118e78184611894565b905092915050565b600080fd5b600080fd5b7f4e487b7100000000000000000000000000000000000000000000000000000000600052604160045260246000fd5b61193182611883565b810181811067ffffffffffffffff821117156119505761194f6118f9565b5b80604052505050565b600061196361163a565b905061196f8282611928565b919050565b600067ffffffffffffffff82111561198f5761198e6118f9565b5b61199882611883565b9050602081019050919050565b82818337600083830152505050565b60006119c76119c284611974565b611959565b9050828152602081018484840111156119e3576119e26118f4565b5b6119ee8482856119a5565b509392505050565b600082601f830112611a0b57611a0a6118ef565b5b8135611a1b8482602086016119b4565b91505092915050565b60008060008060808587031215611a3e57611a3d611644565b5b6000611a4c878288016117df565b9450506020611a5d878288016117df565b9350506040611a6e8782880161172a565b925050606085013567ffffffffffffffff811115611a8f57611a8e611649565b5b611a9b878288016119f6565b91505092959194509250565b600080600060608486031215611ac057611abf611644565b5b6000611ace868287016117df565b9350506020611adf868287016117df565b9250506040611af08682870161172a565b9150509250925092565b600067ffffffffffffffff821115611b1557611b146118f9565b5b611b1e82611883565b9050602081019050919050565b6000611b3e611b3984611afa565b611959565b905082815260208101848484011115611b5a57611b596118f4565b5b611b658482856119a5565b509392505050565b600082601f830112611b8257611b816118ef565b5b8135611b92848260208601611b2b565b91505092915050565b60008060408385031215611bb257611bb1611644565b5b6000611bc0858286016117df565b925050602083013567ffffffffffffffff811115611be157611be0611649565b5b611bed85828601611b6d565b9150509250929050565b611c0081611709565b82525050565b6000602082019050611c1b6000830184611bf7565b92915050565b600060208284031215611c3757611c36611644565b5b6000611c45848285016117df565b91505092915050565b600081519050919050565b600082825260208201905092915050565b6000819050602082019050919050565b600082825260208201905092915050565b6000611c9682611834565b611ca08185611c7a565b9350611cb0818560208601611850565b611cb981611883565b840191505092915050565b6000611cd08383611c8b565b905092915050565b6000602082019050919050565b6000611cf082611c4e565b611cfa8185611c59565b935083602082028501611d0c85611c6a565b8060005b85811015611d485784840389528151611d298582611cc4565b9450611d3483611cd8565b925060208a01995050600181019050611d10565b50829750879550505050505092915050565b60006020820190508181036000830152611d748184611ce5565b905092915050565b611d85816116d3565b8114611d9057600080fd5b50565b600081359050611da281611d7c565b92915050565b60008060408385031215611dbf57611dbe611644565b5b6000611dcd858286016117df565b9250506020611dde85828601611d93565b9150509250929050565b60008060408385031215611dff57611dfe611644565b5b6000611e0d858286016117df565b9250506020611e1e858286016117df565b9150509250929050565b7f4552433732313a20617070726f76616c20746f2063757272656e74206f776e6560008201527f7200000000000000000000000000000000000000000000000000000000000000602082015250565b6000611e8460218361183f565b9150611e8f82611e28565b604082019050919050565b60006020820190508181036000830152611eb381611e77565b9050919050565b7f4552433732313a20617070726f76652063616c6c6572206973206e6f74206f7760008201527f6e6572206e6f7220617070726f76656420666f7220616c6c0000000000000000602082015250565b6000611f1660388361183f565b9150611f2182611eba565b604082019050919050565b60006020820190508181036000830152611f4581611f09565b9050919050565b600067ffffffffffffffff82169050919050565b7f4e487b7100000000000000000000000000000000000000000000000000000000600052601160045260246000fd5b6000611f9a82611f4c565b9150611fa583611f4c565b92508267ffffffffffffffff03821115611fc257611fc1611f60565b5b828201905092915050565b7f4e487b7100000000000000000000000000000000000000000000000000000000600052603160045260246000fd5b600061200782611f4c565b915061201283611f4c565b92508282101561202557612024611f60565b5b828203905092915050565b600061203b82611709565b9150600082141561204f5761204e611f60565b5b600182039050919050565b600081905092915050565b600061207082611834565b61207a818561205a565b935061208a818560208601611850565b80840191505092915050565b7f4e487b7100000000000000000000000000000000000000000000000000000000600052602260045260246000fd5b600060028204905060018216806120dd57607f821691505b602082108114156120f1576120f0612096565b5b50919050565b60008190508160005260206000209050919050565b60008154612119816120c5565b612123818661205a565b9450600182166000811461213e576001811461214f57612182565b60ff19831686528186019350612182565b612158856120f7565b60005b8381101561217a5781548189015260018201915060208101905061215b565b838801955050505b50505092915050565b60006121978285612065565b91506121a3828461210c565b91508190509392505050565b60006121ba82611709565b91507fffffffffffffffffffffffffffffffffffffffffffffffffffffffffffffffff8214156121ed576121ec611f60565b5b600182019050919050565b7f4552433732313a20616472657373203020696e76616c69640000000000000000600082015250565b600061222e60188361183f565b9150612239826121f8565b602082019050919050565b6000602082019050818103600083015261225d81612221565b9050919050565b7f4552433732313a20617070726f766520746f2063616c6c657200000000000000600082015250565b600061229a60198361183f565b91506122a582612264565b602082019050919050565b600060208201905081810360008301526122c98161228d565b9050919050565b7f4552433732313a207472616e736665722063616c6c6572206973206e6f74206f60008201527f776e6572206e6f7220617070726f766564000000000000000000000000000000602082015250565b600061232c60318361183f565b9150612337826122d0565b604082019050919050565b6000602082019050818103600083015261235b8161231f565b9050919050565b600081519050612371816117c8565b92915050565b60006020828403121561238d5761238c611644565b5b600061239b84828501612362565b91505092915050565b7f4552433732313a207472616e7366657220746f206e6f6e20455243373231526560008201527f63656976657220696d706c656d656e7465720000000000000000000000000000602082015250565b600061240060328361183f565b915061240b826123a4565b604082019050919050565b6000602082019050818103600083015261242f816123f3565b9050919050565b7f4552433732313a207472616e73666572206f6620746f6b656e2074686174206960008201527f73206e6f74206f776e0000000000000000000000000000000000000000000000602082015250565b600061249260298361183f565b915061249d82612436565b604082019050919050565b600060208201905081810360008301526124c181612485565b9050919050565b7f4552433732313a207472616e7366657220746f20746865207a65726f2061646460008201527f7265737300000000000000000000000000000000000000000000000000000000602082015250565b600061252460248361183f565b915061252f826124c8565b604082019050919050565b6000602082019050818103600083015261255381612517565b905091905056fea2646970667358221220d13b15d7b2eb327cfbe686ec12c0f64e5326ff8ae3c725c2f287af2a0b59d07b64736f6c634300080c0033",
  "immutableReferences": {},
  "source": "pragma solidity ^0.8.0;\r\nimport \"./tokenData.sol\";\r\nimport \"./interfaceERC721.sol\";\r\n\r\ncontract tokenTest is tokenData, ERC721, ERC165 {\r\n    \r\n    function getVersion() public pure returns (string memory){\r\n        return \"0.7\";\r\n    }\r\n\r\n    function getName() public pure returns (string memory){\r\n        return \"tokenTest\";\r\n    }\r\n\r\n    function balanceOf(address _owner) public view virtual override returns (uint256){\r\n        return tokenBalance[_owner];\r\n    }\r\n\r\n    function ownerOf(uint256 _tokenId) public view virtual override returns (address){\r\n        address owner = tokenOwner[_tokenId];\r\n        require(owner != address(0), \"ERC721: adress 0 invalid\");\r\n        return tokenOwner[_tokenId];\r\n    }\r\n\r\n    function safeTransferFrom(address _from, address _to, uint256 _tokenId) public virtual payable override {\r\n        safeTransferFrom(_from, _to, _tokenId, \"\");\r\n    }\r\n\r\n    \r\n\r\n    function safeTransferFrom(address from, address to, uint256 tokenId, bytes memory _data) public virtual payable override {\r\n        require(_isApprovedOrOwner(msg.sender, tokenId), \"ERC721: transfer caller is not owner nor approved\");\r\n        _safeTransfer(from, to, tokenId, _data);\r\n    }\r\n\r\n    function transferFrom(address _from, address _to, uint _tokenId) public virtual payable override{\r\n\t\tsafeTransferFrom(_from,_to,_tokenId);\r\n\t}\r\n\r\n    function _safeTransfer(address from, address to, uint256 tokenId, bytes memory _data) internal virtual {\r\n        _transfer(from, to, tokenId);\r\n        require(_checkOnERC721Received(from, to, tokenId, _data), \"ERC721: transfer to non ERC721Receiver implementer\");\r\n    }\r\n\r\n    function _transfer(address from, address to, uint256 tokenId) internal virtual {\r\n        require(ownerOf(tokenId) == from, \"ERC721: transfer of token that is not own\");\r\n        require(to != address(0), \"ERC721: transfer to the zero address\");\r\n        // Clear approvals from the previous owner\r\n        _approve(address(0), tokenId);\r\n       tokenOwner[tokenId] = to;\r\n        emit Transfer(from, to, tokenId);\r\n    }\r\n\r\n    function approve(address _approveTo, uint256 _tokenId) public virtual payable override {\r\n        require(_approveTo != ownerOf(_tokenId) , \"ERC721: approval to current owner\");\r\n\r\n        require(msg.sender == ownerOf(_tokenId) || isApprovedForAll(ownerOf(_tokenId), msg.sender),\r\n            \"ERC721: approve caller is not owner nor approved for all\"\r\n        );\r\n        _approve(_approveTo, _tokenId);\r\n    }\r\n\r\n    function getApproved(uint256 _tokenId) public view virtual override returns (address) {\r\n        return tokenApprovals[_tokenId];\r\n    }\r\n\r\n    function setApprovalForAll(address _operator, bool _approved) public virtual override {\r\n        require(_operator != msg.sender, \"ERC721: approve to caller\");\r\n        operatorApprovals[msg.sender][_operator] = _approved;\r\n        emit ApprovalForAll(msg.sender, _operator, _approved);\r\n    }\r\n\r\n    function isApprovedForAll(address _owner, address _operator) public view virtual override returns (bool){\r\n        return operatorApprovals[_owner][_operator];\r\n    }\r\n\r\n    function _isApprovedOrOwner(address spender, uint256 tokenId) internal view virtual returns (bool) {\r\n        return((ownerOf(tokenId)==spender) || getApproved(tokenId)==spender || isApprovedForAll(ownerOf(tokenId), spender) );\r\n    }\r\n\r\n    function _approve(address to, uint256 tokenId) internal virtual {\r\n        tokenApprovals[tokenId] = to;\r\n        emit Approval(this.ownerOf(tokenId), to, 0);\r\n    }\r\n\r\n    function supportsInterface(bytes4 interfaceId) public view virtual override(ERC165) returns (bool) {\r\n        return interfaceId == type(ERC721).interfaceId;\r\n    }   \r\n\r\n    function mintToken(address to, string memory tokenURI) external returns (uint tokenId) {\r\n\t\tToken memory token = Token({\r\n\t\t\tmintedBy: msg.sender,\r\n\t\t\tmintedAt: uint64(block.timestamp)\r\n    \t});\r\n        require(to != address(0));\r\n\t\ttokenList.push(token);\r\n\t\ttokenId = tokenList.length;\r\n        tokenURIs[tokenId]=tokenURI;\r\n        tokenCollection[to].push(tokenURI);\r\n        tokenBalance[to] += 1;\r\n        tokenOwner[tokenId] = to;\r\n        emit Transfer(address(0), to, tokenId);\r\n    } \r\n\r\n    function resetTokens(address to) public {\r\n        for (uint i= tokenList.length; i>0; i--){\r\n            tokenList.pop();\r\n            delete tokenURIs[i];\r\n            tokenBalance[to] -=1 ;\r\n            delete tokenOwner[i];\r\n        }\r\n        delete tokenCollection[to];\r\n        \r\n    }\r\n\r\n    function getURIs(address owner) public view returns(string memory){\r\n        string memory uri=\"\";\r\n        for (uint i = 1; i <= tokenList.length; i++) {\r\n            if (tokenOwner[i]==owner) {\r\n                uri=string(abi.encodePacked(uri,tokenURIs[i]));\r\n                continue;\r\n            }\r\n        }    \r\n        return uri;\r\n    }\r\n\r\n    function getURIList(address owner) public view returns(string[] memory){\r\n        return tokenCollection[owner] ;\r\n    }\r\n\r\n    function getTokenID() public view returns (uint256){\r\n        return tokenList.length;\r\n    }\r\n\r\n    \r\n\r\n    function _checkOnERC721Received(address from, address to, uint256 tokenId, bytes memory _data) public view returns (bool)\r\n    {\r\n        /*if (to.isContract()) {\r\n            try ERC721TokenReceiver(to).onERC721Received(msg.sender, from, tokenId, _data) returns (bytes4 retval) {\r\n                return retval == ERC721TokenReceiver(to).onERC721Received.selector;\r\n            } catch (bytes memory reason) {\r\n                if (reason.length == 0) {\r\n                    revert(\"ERC721: transfer to non ERC721Receiver implementer\");\r\n                } else {\r\n                    // solhint-disable-next-line no-inline-assembly\r\n                    assembly {\r\n                        revert(add(32, reason), mload(reason))\r\n                    }\r\n                }\r\n            }\r\n        } else {\r\n            return true;\r\n        } \r\n    }\r\n\r\n    library Address {\r\n        function isContract(address account) internal view returns (bool) {\r\n            uint256 size;\r\n            assembly { size := extcodesize(account) }\r\n            return size > 0;\r\n        }*/\r\n    }\r\n}",
  "sourcePath": "C:\\Users\\Administrator\\Desktop\\tokenAccount\\contracts\\tokenTest.sol",
  "compiler": {
    "name": "solc",
    "version": "0.8.12+commit.f00d7308.Emscripten.clang"
  },
  "schemaVersion": "3.4.6",
  "updatedAt": "2022-03-31T22:09:03.881Z",
  "devdoc": {
    "kind": "dev",
    "methods": {
      "balanceOf(address)": {
        "details": "NFTs assigned to the zero address are considered invalid, and this  function throws for queries about the zero address.",
        "params": {
          "_owner": "An address for whom to query the balance"
        },
        "returns": {
          "_0": "The number of NFTs owned by `_owner`, possibly zero"
        }
      },
      "getApproved(uint256)": {
        "details": "Throws if `_tokenId` is not a valid NFT.",
        "params": {
          "_tokenId": "The NFT to find the approved address for"
        },
        "returns": {
          "_0": "The approved address for this NFT, or the zero address if there is none"
        }
      },
      "isApprovedForAll(address,address)": {
        "params": {
          "_operator": "The address that acts on behalf of the owner",
          "_owner": "The address that owns the NFTs"
        },
        "returns": {
          "_0": "True if `_operator` is an approved operator for `_owner`, false otherwise"
        }
      },
      "ownerOf(uint256)": {
        "details": "NFTs assigned to zero address are considered invalid, and queries  about them do throw.",
        "params": {
          "_tokenId": "The identifier for an NFT"
        },
        "returns": {
          "_0": "The address of the owner of the NFT"
        }
      },
      "safeTransferFrom(address,address,uint256)": {
        "details": "This works identically to the other function with an extra data parameter,  except this function just sets data to \"\".",
        "params": {
          "_from": "The current owner of the NFT",
          "_to": "The new owner",
          "_tokenId": "The NFT to transfer"
        }
      },
      "setApprovalForAll(address,bool)": {
        "details": "Emits the ApprovalForAll event. The contract MUST allow  multiple operators per owner.",
        "params": {
          "_approved": "True if the operator is approved, false to revoke approval",
          "_operator": "Address to add to the set of authorized operators"
        }
      },
      "transferFrom(address,address,uint256)": {
        "details": "Throws unless `msg.sender` is the current owner, an authorized  operator, or the approved address for this NFT. Throws if `_from` is  not the current owner. Throws if `_to` is the zero address. Throws if  `_tokenId` is not a valid NFT.",
        "params": {
          "_from": "The current owner of the NFT",
          "_to": "The new owner",
          "_tokenId": "The NFT to transfer"
        }
      }
    },
    "version": 1
  },
  "userdoc": {
    "kind": "user",
    "methods": {
      "balanceOf(address)": {
        "notice": "Count all NFTs assigned to an owner"
      },
      "getApproved(uint256)": {
        "notice": "Get the approved address for a single NFT"
      },
      "isApprovedForAll(address,address)": {
        "notice": "Query if an address is an authorized operator for another address"
      },
      "ownerOf(uint256)": {
        "notice": "Find the owner of an NFT"
      },
      "safeTransferFrom(address,address,uint256)": {
        "notice": "Transfers the ownership of an NFT from one address to another address"
      },
      "setApprovalForAll(address,bool)": {
        "notice": "Enable or disable approval for a third party (\"operator\") to manage  all of `msg.sender`'s assets"
      },
      "transferFrom(address,address,uint256)": {
        "notice": "Transfer ownership of an NFT -- THE CALLER IS RESPONSIBLE  TO CONFIRM THAT `_to` IS CAPABLE OF RECEIVING NFTS OR ELSE  THEY MAY BE PERMANENTLY LOST"
      }
    },
    "version": 1
  }
}