{
  "contractName": "tokenTest",
  "abi": [
    {
      "anonymous": false,
      "inputs": [
        {
          "indexed": true,
          "internalType": "address",
          "name": "_owner",
          "type": "address"
        },
        {
          "indexed": true,
          "internalType": "address",
          "name": "_approved",
          "type": "address"
        },
        {
          "indexed": true,
          "internalType": "uint256",
          "name": "_tokenId",
          "type": "uint256"
        }
      ],
      "name": "Approval",
      "type": "event"
    },
    {
      "anonymous": false,
      "inputs": [
        {
          "indexed": true,
          "internalType": "address",
          "name": "_owner",
          "type": "address"
        },
        {
          "indexed": true,
          "internalType": "address",
          "name": "_operator",
          "type": "address"
        },
        {
          "indexed": false,
          "internalType": "bool",
          "name": "_approved",
          "type": "bool"
        }
      ],
      "name": "ApprovalForAll",
      "type": "event"
    },
    {
      "anonymous": false,
      "inputs": [
        {
          "indexed": true,
          "internalType": "address",
          "name": "_from",
          "type": "address"
        },
        {
          "indexed": true,
          "internalType": "address",
          "name": "_to",
          "type": "address"
        },
        {
          "indexed": true,
          "internalType": "uint256",
          "name": "_tokenId",
          "type": "uint256"
        }
      ],
      "name": "Transfer",
      "type": "event"
    },
    {
      "inputs": [
        {
          "internalType": "address",
          "name": "_owner",
          "type": "address"
        }
      ],
      "name": "balanceOf",
      "outputs": [
        {
          "internalType": "uint256",
          "name": "",
          "type": "uint256"
        }
      ],
      "stateMutability": "view",
      "type": "function"
    },
    {
      "inputs": [
        {
          "internalType": "uint256",
          "name": "_tokenId",
          "type": "uint256"
        }
      ],
      "name": "ownerOf",
      "outputs": [
        {
          "internalType": "address",
          "name": "",
          "type": "address"
        }
      ],
      "stateMutability": "view",
      "type": "function"
    },
    {
      "inputs": [
        {
          "internalType": "address",
          "name": "_from",
          "type": "address"
        },
        {
          "internalType": "address",
          "name": "_to",
          "type": "address"
        },
        {
          "internalType": "uint256",
          "name": "_tokenId",
          "type": "uint256"
        }
      ],
      "name": "safeTransferFrom",
      "outputs": [],
      "stateMutability": "payable",
      "type": "function"
    },
    {
      "inputs": [
        {
          "internalType": "address",
          "name": "from",
          "type": "address"
        },
        {
          "internalType": "address",
          "name": "to",
          "type": "address"
        },
        {
          "internalType": "uint256",
          "name": "tokenId",
          "type": "uint256"
        },
        {
          "internalType": "bytes",
          "name": "_data",
          "type": "bytes"
        }
      ],
      "name": "safeTransferFrom",
      "outputs": [],
      "stateMutability": "payable",
      "type": "function"
    },
    {
      "inputs": [
        {
          "internalType": "address",
          "name": "_from",
          "type": "address"
        },
        {
          "internalType": "address",
          "name": "_to",
          "type": "address"
        },
        {
          "internalType": "uint256",
          "name": "_tokenId",
          "type": "uint256"
        }
      ],
      "name": "transferFrom",
      "outputs": [],
      "stateMutability": "payable",
      "type": "function"
    },
    {
      "inputs": [
        {
          "internalType": "address",
          "name": "_approveTo",
          "type": "address"
        },
        {
          "internalType": "uint256",
          "name": "_tokenId",
          "type": "uint256"
        }
      ],
      "name": "approve",
      "outputs": [],
      "stateMutability": "payable",
      "type": "function"
    },
    {
      "inputs": [
        {
          "internalType": "uint256",
          "name": "_tokenId",
          "type": "uint256"
        }
      ],
      "name": "getApproved",
      "outputs": [
        {
          "internalType": "address",
          "name": "",
          "type": "address"
        }
      ],
      "stateMutability": "view",
      "type": "function"
    },
    {
      "inputs": [
        {
          "internalType": "address",
          "name": "_operator",
          "type": "address"
        },
        {
          "internalType": "bool",
          "name": "_approved",
          "type": "bool"
        }
      ],
      "name": "setApprovalForAll",
      "outputs": [],
      "stateMutability": "nonpayable",
      "type": "function"
    },
    {
      "inputs": [
        {
          "internalType": "address",
          "name": "_owner",
          "type": "address"
        },
        {
          "internalType": "address",
          "name": "_operator",
          "type": "address"
        }
      ],
      "name": "isApprovedForAll",
      "outputs": [
        {
          "internalType": "bool",
          "name": "",
          "type": "bool"
        }
      ],
      "stateMutability": "view",
      "type": "function"
    },
    {
      "inputs": [
        {
          "internalType": "bytes4",
          "name": "interfaceId",
          "type": "bytes4"
        }
      ],
      "name": "supportsInterface",
      "outputs": [
        {
          "internalType": "bool",
          "name": "",
          "type": "bool"
        }
      ],
      "stateMutability": "view",
      "type": "function"
    },
    {
      "inputs": [
        {
          "internalType": "address",
          "name": "to",
          "type": "address"
        },
        {
          "internalType": "string",
          "name": "tokenURI",
          "type": "string"
        }
      ],
      "name": "mintToken",
      "outputs": [
        {
          "internalType": "uint256",
          "name": "tokenId",
          "type": "uint256"
        }
      ],
      "stateMutability": "nonpayable",
      "type": "function"
    },
    {
      "inputs": [
        {
          "internalType": "address",
          "name": "to",
          "type": "address"
        }
      ],
      "name": "deleteToken",
      "outputs": [],
      "stateMutability": "nonpayable",
      "type": "function"
    },
    {
      "inputs": [
        {
          "internalType": "address",
          "name": "owner",
          "type": "address"
        }
      ],
      "name": "getURIs",
      "outputs": [
        {
          "internalType": "string",
          "name": "",
          "type": "string"
        }
      ],
      "stateMutability": "view",
      "type": "function"
    },
    {
      "inputs": [],
      "name": "getTokenID",
      "outputs": [
        {
          "internalType": "uint256",
          "name": "",
          "type": "uint256"
        }
      ],
      "stateMutability": "view",
      "type": "function"
    },
    {
      "inputs": [
        {
          "internalType": "address",
          "name": "from",
          "type": "address"
        },
        {
          "internalType": "address",
          "name": "to",
          "type": "address"
        },
        {
          "internalType": "uint256",
          "name": "tokenId",
          "type": "uint256"
        },
        {
          "internalType": "bytes",
          "name": "_data",
          "type": "bytes"
        }
      ],
      "name": "_checkOnERC721Received",
      "outputs": [
        {
          "internalType": "bool",
          "name": "",
          "type": "bool"
        }
      ],
      "stateMutability": "view",
      "type": "function"
    }
  ],
  "bytecode": "0x608060405234801561001057600080fd5b506120c2806100206000396000f3fe6080604052600436106100e85760003560e01c80634802693d1161008a578063a22cb46511610059578063a22cb46514610317578063b88d4fde14610340578063e985e9c51461035c578063f069f71214610399576100e8565b80634802693d146102355780636352211e146102725780636ba367a3146102af57806370a08231146102da576100e8565b80631fd01de1116100c65780631fd01de11461018357806323b872dd146101c05780633d02d0c9146101dc57806342842e0e14610219576100e8565b806301ffc9a7146100ed578063081812fc1461012a578063095ea7b314610167575b600080fd5b3480156100f957600080fd5b50610114600480360381019061010f9190611330565b6103c2565b6040516101219190611378565b60405180910390f35b34801561013657600080fd5b50610151600480360381019061014c91906113c9565b61042c565b60405161015e9190611437565b60405180910390f35b610181600480360381019061017c919061147e565b610469565b005b34801561018f57600080fd5b506101aa60048036038101906101a59190611604565b61057d565b6040516101b79190611378565b60405180910390f35b6101da60048036038101906101d59190611687565b610587565b005b3480156101e857600080fd5b5061020360048036038101906101fe919061177b565b610597565b60405161021091906117e6565b60405180910390f35b610233600480360381019061022e9190611687565b610819565b005b34801561024157600080fd5b5061025c60048036038101906102579190611801565b610839565b60405161026991906118b6565b60405180910390f35b34801561027e57600080fd5b50610299600480360381019061029491906113c9565b610922565b6040516102a69190611437565b60405180910390f35b3480156102bb57600080fd5b506102c4610a07565b6040516102d191906117e6565b60405180910390f35b3480156102e657600080fd5b5061030160048036038101906102fc9190611801565b610a13565b60405161030e91906117e6565b60405180910390f35b34801561032357600080fd5b5061033e60048036038101906103399190611904565b610a7a565b005b61035a60048036038101906103559190611604565b610be6565b005b34801561036857600080fd5b50610383600480360381019061037e9190611944565b610c41565b6040516103909190611378565b60405180910390f35b3480156103a557600080fd5b506103c060048036038101906103bb9190611801565b610cd5565b005b60007f80ac58cd000000000000000000000000000000000000000000000000000000007bffffffffffffffffffffffffffffffffffffffffffffffffffffffff1916827bffffffffffffffffffffffffffffffffffffffffffffffffffffffff1916149050919050565b60006005600083815260200190815260200160002060009054906101000a900473ffffffffffffffffffffffffffffffffffffffff169050919050565b61047281610922565b73ffffffffffffffffffffffffffffffffffffffff168273ffffffffffffffffffffffffffffffffffffffff1614156104e0576040517f08c379a00000000000000000000000000000000000000000000000000000000081526004016104d7906119f6565b60405180910390fd5b6104e981610922565b73ffffffffffffffffffffffffffffffffffffffff163373ffffffffffffffffffffffffffffffffffffffff161480610530575061052f61052982610922565b33610c41565b5b61056f576040517f08c379a000000000000000000000000000000000000000000000000000000000815260040161056690611a88565b60405180910390fd5b6105798282610e1f565b5050565b6000949350505050565b610592838383610819565b505050565b60008060405180604001604052803373ffffffffffffffffffffffffffffffffffffffff1681526020014267ffffffffffffffff168152509050600073ffffffffffffffffffffffffffffffffffffffff168473ffffffffffffffffffffffffffffffffffffffff16141561060b57600080fd5b6000819080600181540180825580915050600190039060005260206000200160009091909190915060008201518160000160006101000a81548173ffffffffffffffffffffffffffffffffffffffff021916908373ffffffffffffffffffffffffffffffffffffffff16021790555060208201518160000160146101000a81548167ffffffffffffffff021916908367ffffffffffffffff16021790555050506000805490509150826002600084815260200190815260200160002090805190602001906106da9291906111e1565b506001600460008673ffffffffffffffffffffffffffffffffffffffff1673ffffffffffffffffffffffffffffffffffffffff16815260200190815260200160002060008282829054906101000a900467ffffffffffffffff1661073e9190611aeb565b92506101000a81548167ffffffffffffffff021916908367ffffffffffffffff160217905550836003600084815260200190815260200160002060006101000a81548173ffffffffffffffffffffffffffffffffffffffff021916908373ffffffffffffffffffffffffffffffffffffffff160217905550818473ffffffffffffffffffffffffffffffffffffffff16600073ffffffffffffffffffffffffffffffffffffffff167fddf252ad1be2c89b69c2b068fc378daa952ba7f163c4a11628f55a4df523b3ef60405160405180910390a45092915050565b61083483838360405180602001604052806000815250610be6565b505050565b606060006040518060200160405280600081525090506000600190505b6000805490508111610918578373ffffffffffffffffffffffffffffffffffffffff166003600083815260200190815260200160002060009054906101000a900473ffffffffffffffffffffffffffffffffffffffff1673ffffffffffffffffffffffffffffffffffffffff1614156109045781600260008381526020019081526020016000206040516020016108ee929190611c5a565b6040516020818303038152906040529150610905565b5b808061091090611c7e565b915050610856565b5080915050919050565b6000806003600084815260200190815260200160002060009054906101000a900473ffffffffffffffffffffffffffffffffffffffff169050600073ffffffffffffffffffffffffffffffffffffffff168173ffffffffffffffffffffffffffffffffffffffff1614156109cb576040517f08c379a00000000000000000000000000000000000000000000000000000000081526004016109c290611d13565b60405180910390fd5b6003600084815260200190815260200160002060009054906101000a900473ffffffffffffffffffffffffffffffffffffffff16915050919050565b60008080549050905090565b6000600460008373ffffffffffffffffffffffffffffffffffffffff1673ffffffffffffffffffffffffffffffffffffffff16815260200190815260200160002060009054906101000a900467ffffffffffffffff1667ffffffffffffffff169050919050565b3373ffffffffffffffffffffffffffffffffffffffff168273ffffffffffffffffffffffffffffffffffffffff161415610ae9576040517f08c379a0000000000000000000000000000000000000000000000000000000008152600401610ae090611d7f565b60405180910390fd5b80600660003373ffffffffffffffffffffffffffffffffffffffff1673ffffffffffffffffffffffffffffffffffffffff16815260200190815260200160002060008473ffffffffffffffffffffffffffffffffffffffff1673ffffffffffffffffffffffffffffffffffffffff16815260200190815260200160002060006101000a81548160ff0219169083151502179055508173ffffffffffffffffffffffffffffffffffffffff163373ffffffffffffffffffffffffffffffffffffffff167f17307eab39ab6107e8899845ad3d59bd9653f200f220920489ca2b5937696c3183604051610bda9190611378565b60405180910390a35050565b610bf03383610f4a565b610c2f576040517f08c379a0000000000000000000000000000000000000000000000000000000008152600401610c2690611e11565b60405180910390fd5b610c3b84848484610fe2565b50505050565b6000600660008473ffffffffffffffffffffffffffffffffffffffff1673ffffffffffffffffffffffffffffffffffffffff16815260200190815260200160002060008373ffffffffffffffffffffffffffffffffffffffff1673ffffffffffffffffffffffffffffffffffffffff16815260200190815260200160002060009054906101000a900460ff16905092915050565b6003600080815260200190815260200160002060006101000a81549073ffffffffffffffffffffffffffffffffffffffff02191690556001600460008373ffffffffffffffffffffffffffffffffffffffff1673ffffffffffffffffffffffffffffffffffffffff16815260200190815260200160002060008282829054906101000a900467ffffffffffffffff16610d6e9190611e31565b92506101000a81548167ffffffffffffffff021916908367ffffffffffffffff1602179055506000805480610da657610da5611e65565b5b60019003818190600052602060002001600080820160006101000a81549073ffffffffffffffffffffffffffffffffffffffff02191690556000820160146101000a81549067ffffffffffffffff021916905550509055600260008081526020019081526020016000206000610e1c9190611267565b50565b816005600083815260200190815260200160002060006101000a81548173ffffffffffffffffffffffffffffffffffffffff021916908373ffffffffffffffffffffffffffffffffffffffff16021790555060008273ffffffffffffffffffffffffffffffffffffffff163073ffffffffffffffffffffffffffffffffffffffff16636352211e846040518263ffffffff1660e01b8152600401610ec391906117e6565b602060405180830381865afa158015610ee0573d6000803e3d6000fd5b505050506040513d601f19601f82011682018060405250810190610f049190611ea9565b73ffffffffffffffffffffffffffffffffffffffff167f8c5be1e5ebec7d5bd14f71427d1e84f3dd0314c0f7b2291e5b200ac8c7c3b92560405160405180910390a45050565b60008273ffffffffffffffffffffffffffffffffffffffff16610f6c83610922565b73ffffffffffffffffffffffffffffffffffffffff161480610fc157508273ffffffffffffffffffffffffffffffffffffffff16610fa98361042c565b73ffffffffffffffffffffffffffffffffffffffff16145b80610fda5750610fd9610fd383610922565b84610c41565b5b905092915050565b610fed84848461103e565b610ff98484848461057d565b611038576040517f08c379a000000000000000000000000000000000000000000000000000000000815260040161102f90611f48565b60405180910390fd5b50505050565b8273ffffffffffffffffffffffffffffffffffffffff1661105e82610922565b73ffffffffffffffffffffffffffffffffffffffff16146110b4576040517f08c379a00000000000000000000000000000000000000000000000000000000081526004016110ab90611fda565b60405180910390fd5b600073ffffffffffffffffffffffffffffffffffffffff168273ffffffffffffffffffffffffffffffffffffffff161415611124576040517f08c379a000000000000000000000000000000000000000000000000000000000815260040161111b9061206c565b60405180910390fd5b61112f600082610e1f565b816003600083815260200190815260200160002060006101000a81548173ffffffffffffffffffffffffffffffffffffffff021916908373ffffffffffffffffffffffffffffffffffffffff160217905550808273ffffffffffffffffffffffffffffffffffffffff168473ffffffffffffffffffffffffffffffffffffffff167fddf252ad1be2c89b69c2b068fc378daa952ba7f163c4a11628f55a4df523b3ef60405160405180910390a4505050565b8280546111ed90611b94565b90600052602060002090601f01602090048101928261120f5760008555611256565b82601f1061122857805160ff1916838001178555611256565b82800160010185558215611256579182015b8281111561125557825182559160200191906001019061123a565b5b50905061126391906112a7565b5090565b50805461127390611b94565b6000825580601f1061128557506112a4565b601f0160209004906000526020600020908101906112a391906112a7565b5b50565b5b808211156112c05760008160009055506001016112a8565b5090565b6000604051905090565b600080fd5b600080fd5b60007fffffffff0000000000000000000000000000000000000000000000000000000082169050919050565b61130d816112d8565b811461131857600080fd5b50565b60008135905061132a81611304565b92915050565b600060208284031215611346576113456112ce565b5b60006113548482850161131b565b91505092915050565b60008115159050919050565b6113728161135d565b82525050565b600060208201905061138d6000830184611369565b92915050565b6000819050919050565b6113a681611393565b81146113b157600080fd5b50565b6000813590506113c38161139d565b92915050565b6000602082840312156113df576113de6112ce565b5b60006113ed848285016113b4565b91505092915050565b600073ffffffffffffffffffffffffffffffffffffffff82169050919050565b6000611421826113f6565b9050919050565b61143181611416565b82525050565b600060208201905061144c6000830184611428565b92915050565b61145b81611416565b811461146657600080fd5b50565b60008135905061147881611452565b92915050565b60008060408385031215611495576114946112ce565b5b60006114a385828601611469565b92505060206114b4858286016113b4565b9150509250929050565b600080fd5b600080fd5b6000601f19601f8301169050919050565b7f4e487b7100000000000000000000000000000000000000000000000000000000600052604160045260246000fd5b611511826114c8565b810181811067ffffffffffffffff821117156115305761152f6114d9565b5b80604052505050565b60006115436112c4565b905061154f8282611508565b919050565b600067ffffffffffffffff82111561156f5761156e6114d9565b5b611578826114c8565b9050602081019050919050565b82818337600083830152505050565b60006115a76115a284611554565b611539565b9050828152602081018484840111156115c3576115c26114c3565b5b6115ce848285611585565b509392505050565b600082601f8301126115eb576115ea6114be565b5b81356115fb848260208601611594565b91505092915050565b6000806000806080858703121561161e5761161d6112ce565b5b600061162c87828801611469565b945050602061163d87828801611469565b935050604061164e878288016113b4565b925050606085013567ffffffffffffffff81111561166f5761166e6112d3565b5b61167b878288016115d6565b91505092959194509250565b6000806000606084860312156116a05761169f6112ce565b5b60006116ae86828701611469565b93505060206116bf86828701611469565b92505060406116d0868287016113b4565b9150509250925092565b600067ffffffffffffffff8211156116f5576116f46114d9565b5b6116fe826114c8565b9050602081019050919050565b600061171e611719846116da565b611539565b90508281526020810184848401111561173a576117396114c3565b5b611745848285611585565b509392505050565b600082601f830112611762576117616114be565b5b813561177284826020860161170b565b91505092915050565b60008060408385031215611792576117916112ce565b5b60006117a085828601611469565b925050602083013567ffffffffffffffff8111156117c1576117c06112d3565b5b6117cd8582860161174d565b9150509250929050565b6117e081611393565b82525050565b60006020820190506117fb60008301846117d7565b92915050565b600060208284031215611817576118166112ce565b5b600061182584828501611469565b91505092915050565b600081519050919050565b600082825260208201905092915050565b60005b8381101561186857808201518184015260208101905061184d565b83811115611877576000848401525b50505050565b60006118888261182e565b6118928185611839565b93506118a281856020860161184a565b6118ab816114c8565b840191505092915050565b600060208201905081810360008301526118d0818461187d565b905092915050565b6118e18161135d565b81146118ec57600080fd5b50565b6000813590506118fe816118d8565b92915050565b6000806040838503121561191b5761191a6112ce565b5b600061192985828601611469565b925050602061193a858286016118ef565b9150509250929050565b6000806040838503121561195b5761195a6112ce565b5b600061196985828601611469565b925050602061197a85828601611469565b9150509250929050565b7f4552433732313a20617070726f76616c20746f2063757272656e74206f776e6560008201527f7200000000000000000000000000000000000000000000000000000000000000602082015250565b60006119e0602183611839565b91506119eb82611984565b604082019050919050565b60006020820190508181036000830152611a0f816119d3565b9050919050565b7f4552433732313a20617070726f76652063616c6c6572206973206e6f74206f7760008201527f6e6572206e6f7220617070726f76656420666f7220616c6c0000000000000000602082015250565b6000611a72603883611839565b9150611a7d82611a16565b604082019050919050565b60006020820190508181036000830152611aa181611a65565b9050919050565b600067ffffffffffffffff82169050919050565b7f4e487b7100000000000000000000000000000000000000000000000000000000600052601160045260246000fd5b6000611af682611aa8565b9150611b0183611aa8565b92508267ffffffffffffffff03821115611b1e57611b1d611abc565b5b828201905092915050565b600081905092915050565b6000611b3f8261182e565b611b498185611b29565b9350611b5981856020860161184a565b80840191505092915050565b7f4e487b7100000000000000000000000000000000000000000000000000000000600052602260045260246000fd5b60006002820490506001821680611bac57607f821691505b60208210811415611bc057611bbf611b65565b5b50919050565b60008190508160005260206000209050919050565b60008154611be881611b94565b611bf28186611b29565b94506001821660008114611c0d5760018114611c1e57611c51565b60ff19831686528186019350611c51565b611c2785611bc6565b60005b83811015611c4957815481890152600182019150602081019050611c2a565b838801955050505b50505092915050565b6000611c668285611b34565b9150611c728284611bdb565b91508190509392505050565b6000611c8982611393565b91507fffffffffffffffffffffffffffffffffffffffffffffffffffffffffffffffff821415611cbc57611cbb611abc565b5b600182019050919050565b7f4552433732313a20616472657373203020696e76616c69640000000000000000600082015250565b6000611cfd601883611839565b9150611d0882611cc7565b602082019050919050565b60006020820190508181036000830152611d2c81611cf0565b9050919050565b7f4552433732313a20617070726f766520746f2063616c6c657200000000000000600082015250565b6000611d69601983611839565b9150611d7482611d33565b602082019050919050565b60006020820190508181036000830152611d9881611d5c565b9050919050565b7f4552433732313a207472616e736665722063616c6c6572206973206e6f74206f60008201527f776e6572206e6f7220617070726f766564000000000000000000000000000000602082015250565b6000611dfb603183611839565b9150611e0682611d9f565b604082019050919050565b60006020820190508181036000830152611e2a81611dee565b9050919050565b6000611e3c82611aa8565b9150611e4783611aa8565b925082821015611e5a57611e59611abc565b5b828203905092915050565b7f4e487b7100000000000000000000000000000000000000000000000000000000600052603160045260246000fd5b600081519050611ea381611452565b92915050565b600060208284031215611ebf57611ebe6112ce565b5b6000611ecd84828501611e94565b91505092915050565b7f4552433732313a207472616e7366657220746f206e6f6e20455243373231526560008201527f63656976657220696d706c656d656e7465720000000000000000000000000000602082015250565b6000611f32603283611839565b9150611f3d82611ed6565b604082019050919050565b60006020820190508181036000830152611f6181611f25565b9050919050565b7f4552433732313a207472616e73666572206f6620746f6b656e2074686174206960008201527f73206e6f74206f776e0000000000000000000000000000000000000000000000602082015250565b6000611fc4602983611839565b9150611fcf82611f68565b604082019050919050565b60006020820190508181036000830152611ff381611fb7565b9050919050565b7f4552433732313a207472616e7366657220746f20746865207a65726f2061646460008201527f7265737300000000000000000000000000000000000000000000000000000000602082015250565b6000612056602483611839565b915061206182611ffa565b604082019050919050565b6000602082019050818103600083015261208581612049565b905091905056fea26469706673582212200ce4bcdf32a65f1b23f1f93cb594ddc76b26a25fc41fc2dbe2fc5fc6c11adf7364736f6c634300080c0033",
  "immutableReferences": {},
  "source": "pragma solidity ^0.8.0;\r\nimport \"./tokenData.sol\";\r\nimport \"./interfaceERC721.sol\";\r\n\r\ncontract tokenTest is tokenData, ERC721, ERC165 {\r\n    \r\n    function balanceOf(address _owner) public view virtual override returns (uint256){\r\n        return tokenBalance[_owner];\r\n    }\r\n\r\n    function ownerOf(uint256 _tokenId) public view virtual override returns (address){\r\n        address owner = tokenOwner[_tokenId];\r\n        require(owner != address(0), \"ERC721: adress 0 invalid\");\r\n        return tokenOwner[_tokenId];\r\n    }\r\n\r\n    function safeTransferFrom(address _from, address _to, uint256 _tokenId) public virtual payable override {\r\n        safeTransferFrom(_from, _to, _tokenId, \"\");\r\n    }\r\n\r\n    \r\n\r\n    function safeTransferFrom(address from, address to, uint256 tokenId, bytes memory _data) public virtual payable override {\r\n        require(_isApprovedOrOwner(msg.sender, tokenId), \"ERC721: transfer caller is not owner nor approved\");\r\n        _safeTransfer(from, to, tokenId, _data);\r\n    }\r\n\r\n    function transferFrom(address _from, address _to, uint _tokenId) public virtual payable override{\r\n\t\tsafeTransferFrom(_from,_to,_tokenId);\r\n\t}\r\n\r\n    function _safeTransfer(address from, address to, uint256 tokenId, bytes memory _data) internal virtual {\r\n        _transfer(from, to, tokenId);\r\n        require(_checkOnERC721Received(from, to, tokenId, _data), \"ERC721: transfer to non ERC721Receiver implementer\");\r\n    }\r\n\r\n    function _transfer(address from, address to, uint256 tokenId) internal virtual {\r\n        require(ownerOf(tokenId) == from, \"ERC721: transfer of token that is not own\");\r\n        require(to != address(0), \"ERC721: transfer to the zero address\");\r\n        // Clear approvals from the previous owner\r\n        _approve(address(0), tokenId);\r\n       tokenOwner[tokenId] = to;\r\n        emit Transfer(from, to, tokenId);\r\n    }\r\n\r\n    function approve(address _approveTo, uint256 _tokenId) public virtual payable override {\r\n        require(_approveTo != ownerOf(_tokenId) , \"ERC721: approval to current owner\");\r\n\r\n        require(msg.sender == ownerOf(_tokenId) || isApprovedForAll(ownerOf(_tokenId), msg.sender),\r\n            \"ERC721: approve caller is not owner nor approved for all\"\r\n        );\r\n        _approve(_approveTo, _tokenId);\r\n    }\r\n\r\n    function getApproved(uint256 _tokenId) public view virtual override returns (address) {\r\n        return tokenApprovals[_tokenId];\r\n    }\r\n\r\n    function setApprovalForAll(address _operator, bool _approved) public virtual override {\r\n        require(_operator != msg.sender, \"ERC721: approve to caller\");\r\n        operatorApprovals[msg.sender][_operator] = _approved;\r\n        emit ApprovalForAll(msg.sender, _operator, _approved);\r\n    }\r\n\r\n    function isApprovedForAll(address _owner, address _operator) public view virtual override returns (bool){\r\n        return operatorApprovals[_owner][_operator];\r\n    }\r\n\r\n    function _isApprovedOrOwner(address spender, uint256 tokenId) internal view virtual returns (bool) {\r\n        return((ownerOf(tokenId)==spender) || getApproved(tokenId)==spender || isApprovedForAll(ownerOf(tokenId), spender) );\r\n    }\r\n\r\n    function _approve(address to, uint256 tokenId) internal virtual {\r\n        tokenApprovals[tokenId] = to;\r\n        emit Approval(this.ownerOf(tokenId), to, 0);\r\n    }\r\n\r\n    function supportsInterface(bytes4 interfaceId) public view virtual override(ERC165) returns (bool) {\r\n        return interfaceId == type(ERC721).interfaceId;\r\n    }   \r\n\r\n    function mintToken(address to, string memory tokenURI) external returns (uint tokenId) {\r\n\t\tToken memory token = Token({\r\n\t\t\tmintedBy: msg.sender,\r\n\t\t\tmintedAt: uint64(block.timestamp)\r\n    \t});\r\n        require(to != address(0));\r\n        //require(tokenList.length<maxCount, \"\");\r\n\t\ttokenList.push(token);\r\n\t\ttokenId = tokenList.length;\r\n        tokenURIs[tokenId]=tokenURI;\r\n        tokenBalance[to] += 1;\r\n        tokenOwner[tokenId] = to;\r\n        emit Transfer(address(0), to, tokenId);\r\n    } \r\n\r\n    function deleteToken(address to) public {\r\n        delete tokenOwner[0];\r\n        tokenBalance[to] -= 1;\r\n        tokenList.pop();\r\n        delete tokenURIs[0];\r\n\r\n    }\r\n\r\n    function getURIs(address owner) public view returns(string memory){\r\n        string memory uri=\"\";\r\n        for (uint i = 1; i <= tokenList.length; i++) {\r\n            if (tokenOwner[i]==owner) {\r\n                uri=string(abi.encodePacked(uri,tokenURIs[i]));\r\n                continue;\r\n            }\r\n        }    \r\n        return uri;\r\n    }\r\n\r\n    function getTokenID() public view returns (uint256){\r\n        return tokenList.length;\r\n    }\r\n\r\n    \r\n\r\n    function _checkOnERC721Received(address from, address to, uint256 tokenId, bytes memory _data) public view returns (bool)\r\n    {\r\n        /*if (to.isContract()) {\r\n            try ERC721TokenReceiver(to).onERC721Received(msg.sender, from, tokenId, _data) returns (bytes4 retval) {\r\n                return retval == ERC721TokenReceiver(to).onERC721Received.selector;\r\n            } catch (bytes memory reason) {\r\n                if (reason.length == 0) {\r\n                    revert(\"ERC721: transfer to non ERC721Receiver implementer\");\r\n                } else {\r\n                    // solhint-disable-next-line no-inline-assembly\r\n                    assembly {\r\n                        revert(add(32, reason), mload(reason))\r\n                    }\r\n                }\r\n            }\r\n        } else {\r\n            return true;\r\n        } \r\n    }\r\n\r\n    library Address {\r\n        function isContract(address account) internal view returns (bool) {\r\n            uint256 size;\r\n            assembly { size := extcodesize(account) }\r\n            return size > 0;\r\n        }*/\r\n    }\r\n}",
  "sourcePath": "C:\\Users\\Administrator\\Desktop\\tokenAccount\\contracts\\tokenTest.sol",
  "compiler": {
    "name": "solc",
    "version": "0.8.12+commit.f00d7308.Emscripten.clang"
  },
  "schemaVersion": "3.4.6",
  "updatedAt": "2022-03-30T14:20:09.704Z",
  "devdoc": {
    "kind": "dev",
    "methods": {
      "balanceOf(address)": {
        "details": "NFTs assigned to the zero address are considered invalid, and this  function throws for queries about the zero address.",
        "params": {
          "_owner": "An address for whom to query the balance"
        },
        "returns": {
          "_0": "The number of NFTs owned by `_owner`, possibly zero"
        }
      },
      "getApproved(uint256)": {
        "details": "Throws if `_tokenId` is not a valid NFT.",
        "params": {
          "_tokenId": "The NFT to find the approved address for"
        },
        "returns": {
          "_0": "The approved address for this NFT, or the zero address if there is none"
        }
      },
      "isApprovedForAll(address,address)": {
        "params": {
          "_operator": "The address that acts on behalf of the owner",
          "_owner": "The address that owns the NFTs"
        },
        "returns": {
          "_0": "True if `_operator` is an approved operator for `_owner`, false otherwise"
        }
      },
      "ownerOf(uint256)": {
        "details": "NFTs assigned to zero address are considered invalid, and queries  about them do throw.",
        "params": {
          "_tokenId": "The identifier for an NFT"
        },
        "returns": {
          "_0": "The address of the owner of the NFT"
        }
      },
      "safeTransferFrom(address,address,uint256)": {
        "details": "This works identically to the other function with an extra data parameter,  except this function just sets data to \"\".",
        "params": {
          "_from": "The current owner of the NFT",
          "_to": "The new owner",
          "_tokenId": "The NFT to transfer"
        }
      },
      "setApprovalForAll(address,bool)": {
        "details": "Emits the ApprovalForAll event. The contract MUST allow  multiple operators per owner.",
        "params": {
          "_approved": "True if the operator is approved, false to revoke approval",
          "_operator": "Address to add to the set of authorized operators"
        }
      },
      "transferFrom(address,address,uint256)": {
        "details": "Throws unless `msg.sender` is the current owner, an authorized  operator, or the approved address for this NFT. Throws if `_from` is  not the current owner. Throws if `_to` is the zero address. Throws if  `_tokenId` is not a valid NFT.",
        "params": {
          "_from": "The current owner of the NFT",
          "_to": "The new owner",
          "_tokenId": "The NFT to transfer"
        }
      }
    },
    "version": 1
  },
  "userdoc": {
    "kind": "user",
    "methods": {
      "balanceOf(address)": {
        "notice": "Count all NFTs assigned to an owner"
      },
      "getApproved(uint256)": {
        "notice": "Get the approved address for a single NFT"
      },
      "isApprovedForAll(address,address)": {
        "notice": "Query if an address is an authorized operator for another address"
      },
      "ownerOf(uint256)": {
        "notice": "Find the owner of an NFT"
      },
      "safeTransferFrom(address,address,uint256)": {
        "notice": "Transfers the ownership of an NFT from one address to another address"
      },
      "setApprovalForAll(address,bool)": {
        "notice": "Enable or disable approval for a third party (\"operator\") to manage  all of `msg.sender`'s assets"
      },
      "transferFrom(address,address,uint256)": {
        "notice": "Transfer ownership of an NFT -- THE CALLER IS RESPONSIBLE  TO CONFIRM THAT `_to` IS CAPABLE OF RECEIVING NFTS OR ELSE  THEY MAY BE PERMANENTLY LOST"
      }
    },
    "version": 1
  }
}