{
  "contractName": "tokenTest",
  "abi": [
    {
      "anonymous": false,
      "inputs": [
        {
          "indexed": true,
          "internalType": "address",
          "name": "_owner",
          "type": "address"
        },
        {
          "indexed": true,
          "internalType": "address",
          "name": "_approved",
          "type": "address"
        },
        {
          "indexed": true,
          "internalType": "uint256",
          "name": "_tokenId",
          "type": "uint256"
        }
      ],
      "name": "Approval",
      "type": "event"
    },
    {
      "anonymous": false,
      "inputs": [
        {
          "indexed": true,
          "internalType": "address",
          "name": "_owner",
          "type": "address"
        },
        {
          "indexed": true,
          "internalType": "address",
          "name": "_operator",
          "type": "address"
        },
        {
          "indexed": false,
          "internalType": "bool",
          "name": "_approved",
          "type": "bool"
        }
      ],
      "name": "ApprovalForAll",
      "type": "event"
    },
    {
      "anonymous": false,
      "inputs": [
        {
          "indexed": true,
          "internalType": "address",
          "name": "_from",
          "type": "address"
        },
        {
          "indexed": true,
          "internalType": "address",
          "name": "_to",
          "type": "address"
        },
        {
          "indexed": true,
          "internalType": "uint256",
          "name": "_tokenId",
          "type": "uint256"
        }
      ],
      "name": "Transfer",
      "type": "event"
    },
    {
      "inputs": [],
      "name": "getVersion",
      "outputs": [
        {
          "internalType": "string",
          "name": "",
          "type": "string"
        }
      ],
      "stateMutability": "pure",
      "type": "function",
      "constant": true
    },
    {
      "inputs": [],
      "name": "getName",
      "outputs": [
        {
          "internalType": "string",
          "name": "",
          "type": "string"
        }
      ],
      "stateMutability": "pure",
      "type": "function",
      "constant": true
    },
    {
      "inputs": [
        {
          "internalType": "address",
          "name": "_owner",
          "type": "address"
        }
      ],
      "name": "balanceOf",
      "outputs": [
        {
          "internalType": "uint256",
          "name": "",
          "type": "uint256"
        }
      ],
      "stateMutability": "view",
      "type": "function",
      "constant": true
    },
    {
      "inputs": [
        {
          "internalType": "uint256",
          "name": "_tokenId",
          "type": "uint256"
        }
      ],
      "name": "ownerOf",
      "outputs": [
        {
          "internalType": "address",
          "name": "",
          "type": "address"
        }
      ],
      "stateMutability": "view",
      "type": "function",
      "constant": true
    },
    {
      "inputs": [
        {
          "internalType": "address",
          "name": "_from",
          "type": "address"
        },
        {
          "internalType": "address",
          "name": "_to",
          "type": "address"
        },
        {
          "internalType": "uint256",
          "name": "_tokenId",
          "type": "uint256"
        }
      ],
      "name": "safeTransferFrom",
      "outputs": [],
      "stateMutability": "payable",
      "type": "function",
      "payable": true
    },
    {
      "inputs": [
        {
          "internalType": "address",
          "name": "from",
          "type": "address"
        },
        {
          "internalType": "address",
          "name": "to",
          "type": "address"
        },
        {
          "internalType": "uint256",
          "name": "tokenId",
          "type": "uint256"
        },
        {
          "internalType": "bytes",
          "name": "_data",
          "type": "bytes"
        }
      ],
      "name": "safeTransferFrom",
      "outputs": [],
      "stateMutability": "payable",
      "type": "function",
      "payable": true
    },
    {
      "inputs": [
        {
          "internalType": "address",
          "name": "_from",
          "type": "address"
        },
        {
          "internalType": "address",
          "name": "_to",
          "type": "address"
        },
        {
          "internalType": "uint256",
          "name": "_tokenId",
          "type": "uint256"
        }
      ],
      "name": "transferFrom",
      "outputs": [],
      "stateMutability": "payable",
      "type": "function",
      "payable": true
    },
    {
      "inputs": [
        {
          "internalType": "uint256",
          "name": "index",
          "type": "uint256"
        },
        {
          "internalType": "string[]",
          "name": "array",
          "type": "string[]"
        }
      ],
      "name": "remove",
      "outputs": [],
      "stateMutability": "pure",
      "type": "function",
      "constant": true
    },
    {
      "inputs": [
        {
          "internalType": "address",
          "name": "_approveTo",
          "type": "address"
        },
        {
          "internalType": "uint256",
          "name": "_tokenId",
          "type": "uint256"
        }
      ],
      "name": "approve",
      "outputs": [],
      "stateMutability": "payable",
      "type": "function",
      "payable": true
    },
    {
      "inputs": [
        {
          "internalType": "uint256",
          "name": "_tokenId",
          "type": "uint256"
        }
      ],
      "name": "getApproved",
      "outputs": [
        {
          "internalType": "address",
          "name": "",
          "type": "address"
        }
      ],
      "stateMutability": "view",
      "type": "function",
      "constant": true
    },
    {
      "inputs": [
        {
          "internalType": "address",
          "name": "_operator",
          "type": "address"
        },
        {
          "internalType": "bool",
          "name": "_approved",
          "type": "bool"
        }
      ],
      "name": "setApprovalForAll",
      "outputs": [],
      "stateMutability": "nonpayable",
      "type": "function"
    },
    {
      "inputs": [
        {
          "internalType": "address",
          "name": "_owner",
          "type": "address"
        },
        {
          "internalType": "address",
          "name": "_operator",
          "type": "address"
        }
      ],
      "name": "isApprovedForAll",
      "outputs": [
        {
          "internalType": "bool",
          "name": "",
          "type": "bool"
        }
      ],
      "stateMutability": "view",
      "type": "function",
      "constant": true
    },
    {
      "inputs": [
        {
          "internalType": "bytes4",
          "name": "interfaceId",
          "type": "bytes4"
        }
      ],
      "name": "supportsInterface",
      "outputs": [
        {
          "internalType": "bool",
          "name": "",
          "type": "bool"
        }
      ],
      "stateMutability": "view",
      "type": "function",
      "constant": true
    },
    {
      "inputs": [
        {
          "internalType": "address",
          "name": "to",
          "type": "address"
        },
        {
          "internalType": "string",
          "name": "tokenURI",
          "type": "string"
        }
      ],
      "name": "mintToken",
      "outputs": [
        {
          "internalType": "uint256",
          "name": "tokenId",
          "type": "uint256"
        }
      ],
      "stateMutability": "nonpayable",
      "type": "function"
    },
    {
      "inputs": [
        {
          "internalType": "address",
          "name": "to",
          "type": "address"
        }
      ],
      "name": "resetTokens",
      "outputs": [],
      "stateMutability": "nonpayable",
      "type": "function"
    },
    {
      "inputs": [
        {
          "internalType": "address",
          "name": "owner",
          "type": "address"
        }
      ],
      "name": "getURIs",
      "outputs": [
        {
          "internalType": "string",
          "name": "",
          "type": "string"
        }
      ],
      "stateMutability": "view",
      "type": "function",
      "constant": true
    },
    {
      "inputs": [
        {
          "internalType": "address",
          "name": "owner",
          "type": "address"
        }
      ],
      "name": "getURIList",
      "outputs": [
        {
          "internalType": "string[]",
          "name": "",
          "type": "string[]"
        }
      ],
      "stateMutability": "view",
      "type": "function",
      "constant": true
    },
    {
      "inputs": [],
      "name": "getTokenID",
      "outputs": [
        {
          "internalType": "uint256",
          "name": "",
          "type": "uint256"
        }
      ],
      "stateMutability": "view",
      "type": "function",
      "constant": true
    },
    {
      "inputs": [
        {
          "internalType": "address",
          "name": "from",
          "type": "address"
        },
        {
          "internalType": "address",
          "name": "to",
          "type": "address"
        },
        {
          "internalType": "uint256",
          "name": "tokenId",
          "type": "uint256"
        },
        {
          "internalType": "bytes",
          "name": "_data",
          "type": "bytes"
        }
      ],
      "name": "_checkOnERC721Received",
      "outputs": [
        {
          "internalType": "bool",
          "name": "",
          "type": "bool"
        }
      ],
      "stateMutability": "view",
      "type": "function",
      "constant": true
    }
  ],
  "bytecode": "0x608060405234801561001057600080fd5b50612c3a806100206000396000f3fe6080604052600436106101145760003560e01c806346d0a4aa116100a05780637360cbba116100645780637360cbba146103c25780637fcb2989146103eb578063a22cb46514610428578063b88d4fde14610451578063e985e9c51461046d57610114565b806346d0a4aa146102b75780634802693d146102e05780636352211e1461031d5780636ba367a31461035a57806370a082311461038557610114565b806317d7de7c116100e757806317d7de7c146101da5780631fd01de11461020557806323b872dd146102425780633d02d0c91461025e57806342842e0e1461029b57610114565b806301ffc9a714610119578063081812fc14610156578063095ea7b3146101935780630d8e6e2c146101af575b600080fd5b34801561012557600080fd5b50610140600480360381019061013b9190611adc565b6104aa565b60405161014d9190611b24565b60405180910390f35b34801561016257600080fd5b5061017d60048036038101906101789190611b75565b610514565b60405161018a9190611be3565b60405180910390f35b6101ad60048036038101906101a89190611c2a565b610551565b005b3480156101bb57600080fd5b506101c4610665565b6040516101d19190611d03565b60405180910390f35b3480156101e657600080fd5b506101ef6106a2565b6040516101fc9190611d03565b60405180910390f35b34801561021157600080fd5b5061022c60048036038101906102279190611e5a565b6106df565b6040516102399190611b24565b60405180910390f35b61025c60048036038101906102579190611edd565b6106ed565b005b34801561026a57600080fd5b5061028560048036038101906102809190611fd1565b6106fd565b604051610292919061203c565b60405180910390f35b6102b560048036038101906102b09190611edd565b6109f8565b005b3480156102c357600080fd5b506102de60048036038101906102d99190612057565b610a18565b005b3480156102ec57600080fd5b5061030760048036038101906103029190612057565b610bb2565b6040516103149190611d03565b60405180910390f35b34801561032957600080fd5b50610344600480360381019061033f9190611b75565b610c9b565b6040516103519190611be3565b60405180910390f35b34801561036657600080fd5b5061036f610d80565b60405161037c919061203c565b60405180910390f35b34801561039157600080fd5b506103ac60048036038101906103a79190612057565b610d8c565b6040516103b9919061203c565b60405180910390f35b3480156103ce57600080fd5b506103e960048036038101906103e4919061216a565b610df3565b005b3480156103f757600080fd5b50610412600480360381019061040d9190612057565b610eda565b60405161041f91906122d2565b60405180910390f35b34801561043457600080fd5b5061044f600480360381019061044a9190612320565b610ff2565b005b61046b60048036038101906104669190611e5a565b61115e565b005b34801561047957600080fd5b50610494600480360381019061048f9190612360565b6111b9565b6040516104a19190611b24565b60405180910390f35b60007f80ac58cd000000000000000000000000000000000000000000000000000000007bffffffffffffffffffffffffffffffffffffffffffffffffffffffff1916827bffffffffffffffffffffffffffffffffffffffffffffffffffffffff1916149050919050565b60006005600083815260200190815260200160002060009054906101000a900473ffffffffffffffffffffffffffffffffffffffff169050919050565b61055a81610c9b565b73ffffffffffffffffffffffffffffffffffffffff168273ffffffffffffffffffffffffffffffffffffffff1614156105c8576040517f08c379a00000000000000000000000000000000000000000000000000000000081526004016105bf90612412565b60405180910390fd5b6105d181610c9b565b73ffffffffffffffffffffffffffffffffffffffff163373ffffffffffffffffffffffffffffffffffffffff161480610618575061061761061182610c9b565b336111b9565b5b610657576040517f08c379a000000000000000000000000000000000000000000000000000000000815260040161064e906124a4565b60405180910390fd5b610661828261124d565b5050565b60606040518060400160405280600381526020017f312e300000000000000000000000000000000000000000000000000000000000815250905090565b60606040518060400160405280600981526020017f746f6b656e546573740000000000000000000000000000000000000000000000815250905090565b600060019050949350505050565b6106f88383836109f8565b505050565b60008060405180604001604052803373ffffffffffffffffffffffffffffffffffffffff1681526020014267ffffffffffffffff168152509050600073ffffffffffffffffffffffffffffffffffffffff168473ffffffffffffffffffffffffffffffffffffffff16141561077157600080fd5b6000819080600181540180825580915050600190039060005260206000200160009091909190915060008201518160000160006101000a81548173ffffffffffffffffffffffffffffffffffffffff021916908373ffffffffffffffffffffffffffffffffffffffff16021790555060208201518160000160146101000a81548167ffffffffffffffff021916908367ffffffffffffffff1602179055505050600080549050915082600260008481526020019081526020016000209080519060200190610840929190611948565b50600160008573ffffffffffffffffffffffffffffffffffffffff1673ffffffffffffffffffffffffffffffffffffffff168152602001908152602001600020839080600181540180825580915050600190039060005260206000200160009091909190915090805190602001906108b9929190611948565b506001600460008673ffffffffffffffffffffffffffffffffffffffff1673ffffffffffffffffffffffffffffffffffffffff16815260200190815260200160002060008282829054906101000a900467ffffffffffffffff1661091d9190612507565b92506101000a81548167ffffffffffffffff021916908367ffffffffffffffff160217905550836003600084815260200190815260200160002060006101000a81548173ffffffffffffffffffffffffffffffffffffffff021916908373ffffffffffffffffffffffffffffffffffffffff160217905550818473ffffffffffffffffffffffffffffffffffffffff16600073ffffffffffffffffffffffffffffffffffffffff167fddf252ad1be2c89b69c2b068fc378daa952ba7f163c4a11628f55a4df523b3ef60405160405180910390a45092915050565b610a138383836040518060200160405280600081525061115e565b505050565b6000808054905090505b6000811115610afc576000805480610a3d57610a3c612545565b5b60019003818190600052602060002001600080820160006101000a81549073ffffffffffffffffffffffffffffffffffffffff02191690556000820160146101000a81549067ffffffffffffffff021916905550509055600260008281526020019081526020016000206000610ab391906119ce565b6003600082815260200190815260200160002060006101000a81549073ffffffffffffffffffffffffffffffffffffffff02191690558080610af490612574565b915050610a22565b506000600460008373ffffffffffffffffffffffffffffffffffffffff1673ffffffffffffffffffffffffffffffffffffffff16815260200190815260200160002060006101000a81548167ffffffffffffffff021916908367ffffffffffffffff160217905550600160008273ffffffffffffffffffffffffffffffffffffffff1673ffffffffffffffffffffffffffffffffffffffff1681526020019081526020016000206000610baf9190611a0e565b50565b606060006040518060200160405280600081525090506000600190505b6000805490508111610c91578373ffffffffffffffffffffffffffffffffffffffff166003600083815260200190815260200160002060009054906101000a900473ffffffffffffffffffffffffffffffffffffffff1673ffffffffffffffffffffffffffffffffffffffff161415610c7d578160026000838152602001908152602001600020604051602001610c679291906126cf565b6040516020818303038152906040529150610c7e565b5b8080610c89906126f3565b915050610bcf565b5080915050919050565b6000806003600084815260200190815260200160002060009054906101000a900473ffffffffffffffffffffffffffffffffffffffff169050600073ffffffffffffffffffffffffffffffffffffffff168173ffffffffffffffffffffffffffffffffffffffff161415610d44576040517f08c379a0000000000000000000000000000000000000000000000000000000008152600401610d3b90612788565b60405180910390fd5b6003600084815260200190815260200160002060009054906101000a900473ffffffffffffffffffffffffffffffffffffffff16915050919050565b60008080549050905090565b6000600460008373ffffffffffffffffffffffffffffffffffffffff1673ffffffffffffffffffffffffffffffffffffffff16815260200190815260200160002060009054906101000a900467ffffffffffffffff1667ffffffffffffffff169050919050565b80518210610e36576040517f08c379a0000000000000000000000000000000000000000000000000000000008152600401610e2d906127f4565b60405180910390fd5b60008290505b60018251610e4a9190612814565b811015610ea95781600182610e5f9190612848565b81518110610e7057610e6f61289e565b5b6020026020010151828281518110610e8b57610e8a61289e565b5b60200260200101819052508080610ea1906126f3565b915050610e3c565b508060018251610eb99190612814565b81518110610eca57610ec961289e565b5b6020026020010160608152505050565b6060600160008373ffffffffffffffffffffffffffffffffffffffff1673ffffffffffffffffffffffffffffffffffffffff168152602001908152602001600020805480602002602001604051908101604052809291908181526020016000905b82821015610fe7578382906000526020600020018054610f5a90612609565b80601f0160208091040260200160405190810160405280929190818152602001828054610f8690612609565b8015610fd35780601f10610fa857610100808354040283529160200191610fd3565b820191906000526020600020905b815481529060010190602001808311610fb657829003601f168201915b505050505081526020019060010190610f3b565b505050509050919050565b3373ffffffffffffffffffffffffffffffffffffffff168273ffffffffffffffffffffffffffffffffffffffff161415611061576040517f08c379a000000000000000000000000000000000000000000000000000000000815260040161105890612919565b60405180910390fd5b80600660003373ffffffffffffffffffffffffffffffffffffffff1673ffffffffffffffffffffffffffffffffffffffff16815260200190815260200160002060008473ffffffffffffffffffffffffffffffffffffffff1673ffffffffffffffffffffffffffffffffffffffff16815260200190815260200160002060006101000a81548160ff0219169083151502179055508173ffffffffffffffffffffffffffffffffffffffff163373ffffffffffffffffffffffffffffffffffffffff167f17307eab39ab6107e8899845ad3d59bd9653f200f220920489ca2b5937696c31836040516111529190611b24565b60405180910390a35050565b6111683383611378565b6111a7576040517f08c379a000000000000000000000000000000000000000000000000000000000815260040161119e906129ab565b60405180910390fd5b6111b384848484611410565b50505050565b6000600660008473ffffffffffffffffffffffffffffffffffffffff1673ffffffffffffffffffffffffffffffffffffffff16815260200190815260200160002060008373ffffffffffffffffffffffffffffffffffffffff1673ffffffffffffffffffffffffffffffffffffffff16815260200190815260200160002060009054906101000a900460ff16905092915050565b816005600083815260200190815260200160002060006101000a81548173ffffffffffffffffffffffffffffffffffffffff021916908373ffffffffffffffffffffffffffffffffffffffff16021790555060008273ffffffffffffffffffffffffffffffffffffffff163073ffffffffffffffffffffffffffffffffffffffff16636352211e846040518263ffffffff1660e01b81526004016112f1919061203c565b602060405180830381865afa15801561130e573d6000803e3d6000fd5b505050506040513d601f19601f8201168201806040525081019061133291906129e0565b73ffffffffffffffffffffffffffffffffffffffff167f8c5be1e5ebec7d5bd14f71427d1e84f3dd0314c0f7b2291e5b200ac8c7c3b92560405160405180910390a45050565b60008273ffffffffffffffffffffffffffffffffffffffff1661139a83610c9b565b73ffffffffffffffffffffffffffffffffffffffff1614806113ef57508273ffffffffffffffffffffffffffffffffffffffff166113d783610514565b73ffffffffffffffffffffffffffffffffffffffff16145b80611408575061140761140183610c9b565b846111b9565b5b905092915050565b61141b84848461146c565b611427848484846106df565b611466576040517f08c379a000000000000000000000000000000000000000000000000000000000815260040161145d90612a7f565b60405180910390fd5b50505050565b8273ffffffffffffffffffffffffffffffffffffffff1661148c82610c9b565b73ffffffffffffffffffffffffffffffffffffffff16146114e2576040517f08c379a00000000000000000000000000000000000000000000000000000000081526004016114d990612b11565b60405180910390fd5b600073ffffffffffffffffffffffffffffffffffffffff168273ffffffffffffffffffffffffffffffffffffffff161415611552576040517f08c379a000000000000000000000000000000000000000000000000000000000815260040161154990612ba3565b60405180910390fd5b61155d60008261124d565b816003600083815260200190815260200160002060006101000a81548173ffffffffffffffffffffffffffffffffffffffff021916908373ffffffffffffffffffffffffffffffffffffffff1602179055506000600160008573ffffffffffffffffffffffffffffffffffffffff1673ffffffffffffffffffffffffffffffffffffffff168152602001908152602001600020805490509050600460008573ffffffffffffffffffffffffffffffffffffffff1673ffffffffffffffffffffffffffffffffffffffff168152602001908152602001600020600081819054906101000a900467ffffffffffffffff168092919061165990612bc3565b91906101000a81548167ffffffffffffffff021916908367ffffffffffffffff1602179055505060005b818110156118e657600260008481526020019081526020016000206040516020016116ae9190612bed565b60405160208183030381529060405280519060200120600160008773ffffffffffffffffffffffffffffffffffffffff1673ffffffffffffffffffffffffffffffffffffffff16815260200190815260200160002082815481106117155761171461289e565b5b9060005260206000200160405160200161172f9190612bed565b6040516020818303038152906040528051906020012014156118d257600160008673ffffffffffffffffffffffffffffffffffffffff1673ffffffffffffffffffffffffffffffffffffffff168152602001908152602001600020818154811061179c5761179b61289e565b5b9060005260206000200160006117b291906119ce565b6118ca81600160008873ffffffffffffffffffffffffffffffffffffffff1673ffffffffffffffffffffffffffffffffffffffff168152602001908152602001600020805480602002602001604051908101604052809291908181526020016000905b828210156118c157838290600052602060002001805461183490612609565b80601f016020809104026020016040519081016040528092919081815260200182805461186090612609565b80156118ad5780601f10611882576101008083540402835291602001916118ad565b820191906000526020600020905b81548152906001019060200180831161189057829003601f168201915b505050505081526020019060010190611815565b50505050610df3565b8190506118e1565b80806118dd906126f3565b9150505b611683565b828473ffffffffffffffffffffffffffffffffffffffff168673ffffffffffffffffffffffffffffffffffffffff167fddf252ad1be2c89b69c2b068fc378daa952ba7f163c4a11628f55a4df523b3ef60405160405180910390a45050505050565b82805461195490612609565b90600052602060002090601f01602090048101928261197657600085556119bd565b82601f1061198f57805160ff19168380011785556119bd565b828001600101855582156119bd579182015b828111156119bc5782518255916020019190600101906119a1565b5b5090506119ca9190611a2f565b5090565b5080546119da90612609565b6000825580601f106119ec5750611a0b565b601f016020900490600052602060002090810190611a0a9190611a2f565b5b50565b5080546000825590600052602060002090810190611a2c9190611a4c565b50565b5b80821115611a48576000816000905550600101611a30565b5090565b5b80821115611a6c5760008181611a6391906119ce565b50600101611a4d565b5090565b6000604051905090565b600080fd5b600080fd5b60007fffffffff0000000000000000000000000000000000000000000000000000000082169050919050565b611ab981611a84565b8114611ac457600080fd5b50565b600081359050611ad681611ab0565b92915050565b600060208284031215611af257611af1611a7a565b5b6000611b0084828501611ac7565b91505092915050565b60008115159050919050565b611b1e81611b09565b82525050565b6000602082019050611b396000830184611b15565b92915050565b6000819050919050565b611b5281611b3f565b8114611b5d57600080fd5b50565b600081359050611b6f81611b49565b92915050565b600060208284031215611b8b57611b8a611a7a565b5b6000611b9984828501611b60565b91505092915050565b600073ffffffffffffffffffffffffffffffffffffffff82169050919050565b6000611bcd82611ba2565b9050919050565b611bdd81611bc2565b82525050565b6000602082019050611bf86000830184611bd4565b92915050565b611c0781611bc2565b8114611c1257600080fd5b50565b600081359050611c2481611bfe565b92915050565b60008060408385031215611c4157611c40611a7a565b5b6000611c4f85828601611c15565b9250506020611c6085828601611b60565b9150509250929050565b600081519050919050565b600082825260208201905092915050565b60005b83811015611ca4578082015181840152602081019050611c89565b83811115611cb3576000848401525b50505050565b6000601f19601f8301169050919050565b6000611cd582611c6a565b611cdf8185611c75565b9350611cef818560208601611c86565b611cf881611cb9565b840191505092915050565b60006020820190508181036000830152611d1d8184611cca565b905092915050565b600080fd5b600080fd5b7f4e487b7100000000000000000000000000000000000000000000000000000000600052604160045260246000fd5b611d6782611cb9565b810181811067ffffffffffffffff82111715611d8657611d85611d2f565b5b80604052505050565b6000611d99611a70565b9050611da58282611d5e565b919050565b600067ffffffffffffffff821115611dc557611dc4611d2f565b5b611dce82611cb9565b9050602081019050919050565b82818337600083830152505050565b6000611dfd611df884611daa565b611d8f565b905082815260208101848484011115611e1957611e18611d2a565b5b611e24848285611ddb565b509392505050565b600082601f830112611e4157611e40611d25565b5b8135611e51848260208601611dea565b91505092915050565b60008060008060808587031215611e7457611e73611a7a565b5b6000611e8287828801611c15565b9450506020611e9387828801611c15565b9350506040611ea487828801611b60565b925050606085013567ffffffffffffffff811115611ec557611ec4611a7f565b5b611ed187828801611e2c565b91505092959194509250565b600080600060608486031215611ef657611ef5611a7a565b5b6000611f0486828701611c15565b9350506020611f1586828701611c15565b9250506040611f2686828701611b60565b9150509250925092565b600067ffffffffffffffff821115611f4b57611f4a611d2f565b5b611f5482611cb9565b9050602081019050919050565b6000611f74611f6f84611f30565b611d8f565b905082815260208101848484011115611f9057611f8f611d2a565b5b611f9b848285611ddb565b509392505050565b600082601f830112611fb857611fb7611d25565b5b8135611fc8848260208601611f61565b91505092915050565b60008060408385031215611fe857611fe7611a7a565b5b6000611ff685828601611c15565b925050602083013567ffffffffffffffff81111561201757612016611a7f565b5b61202385828601611fa3565b9150509250929050565b61203681611b3f565b82525050565b6000602082019050612051600083018461202d565b92915050565b60006020828403121561206d5761206c611a7a565b5b600061207b84828501611c15565b91505092915050565b600067ffffffffffffffff82111561209f5761209e611d2f565b5b602082029050602081019050919050565b600080fd5b60006120c86120c384612084565b611d8f565b905080838252602082019050602084028301858111156120eb576120ea6120b0565b5b835b8181101561213257803567ffffffffffffffff8111156121105761210f611d25565b5b80860161211d8982611fa3565b855260208501945050506020810190506120ed565b5050509392505050565b600082601f83011261215157612150611d25565b5b81356121618482602086016120b5565b91505092915050565b6000806040838503121561218157612180611a7a565b5b600061218f85828601611b60565b925050602083013567ffffffffffffffff8111156121b0576121af611a7f565b5b6121bc8582860161213c565b9150509250929050565b600081519050919050565b600082825260208201905092915050565b6000819050602082019050919050565b600082825260208201905092915050565b600061220e82611c6a565b61221881856121f2565b9350612228818560208601611c86565b61223181611cb9565b840191505092915050565b60006122488383612203565b905092915050565b6000602082019050919050565b6000612268826121c6565b61227281856121d1565b935083602082028501612284856121e2565b8060005b858110156122c057848403895281516122a1858261223c565b94506122ac83612250565b925060208a01995050600181019050612288565b50829750879550505050505092915050565b600060208201905081810360008301526122ec818461225d565b905092915050565b6122fd81611b09565b811461230857600080fd5b50565b60008135905061231a816122f4565b92915050565b6000806040838503121561233757612336611a7a565b5b600061234585828601611c15565b92505060206123568582860161230b565b9150509250929050565b6000806040838503121561237757612376611a7a565b5b600061238585828601611c15565b925050602061239685828601611c15565b9150509250929050565b7f4552433732313a20617070726f76616c20746f2063757272656e74206f776e6560008201527f7200000000000000000000000000000000000000000000000000000000000000602082015250565b60006123fc602183611c75565b9150612407826123a0565b604082019050919050565b6000602082019050818103600083015261242b816123ef565b9050919050565b7f4552433732313a20617070726f76652063616c6c6572206973206e6f74206f7760008201527f6e6572206e6f7220617070726f76656420666f7220616c6c0000000000000000602082015250565b600061248e603883611c75565b915061249982612432565b604082019050919050565b600060208201905081810360008301526124bd81612481565b9050919050565b600067ffffffffffffffff82169050919050565b7f4e487b7100000000000000000000000000000000000000000000000000000000600052601160045260246000fd5b6000612512826124c4565b915061251d836124c4565b92508267ffffffffffffffff0382111561253a576125396124d8565b5b828201905092915050565b7f4e487b7100000000000000000000000000000000000000000000000000000000600052603160045260246000fd5b600061257f82611b3f565b91506000821415612593576125926124d8565b5b600182039050919050565b600081905092915050565b60006125b482611c6a565b6125be818561259e565b93506125ce818560208601611c86565b80840191505092915050565b7f4e487b7100000000000000000000000000000000000000000000000000000000600052602260045260246000fd5b6000600282049050600182168061262157607f821691505b60208210811415612635576126346125da565b5b50919050565b60008190508160005260206000209050919050565b6000815461265d81612609565b612667818661259e565b945060018216600081146126825760018114612693576126c6565b60ff198316865281860193506126c6565b61269c8561263b565b60005b838110156126be5781548189015260018201915060208101905061269f565b838801955050505b50505092915050565b60006126db82856125a9565b91506126e78284612650565b91508190509392505050565b60006126fe82611b3f565b91507fffffffffffffffffffffffffffffffffffffffffffffffffffffffffffffffff821415612731576127306124d8565b5b600182019050919050565b7f4552433732313a20616472657373203020696e76616c69640000000000000000600082015250565b6000612772601883611c75565b915061277d8261273c565b602082019050919050565b600060208201905081810360008301526127a181612765565b9050919050565b7f496e646578206f7574206f6620626f756e647300000000000000000000000000600082015250565b60006127de601383611c75565b91506127e9826127a8565b602082019050919050565b6000602082019050818103600083015261280d816127d1565b9050919050565b600061281f82611b3f565b915061282a83611b3f565b92508282101561283d5761283c6124d8565b5b828203905092915050565b600061285382611b3f565b915061285e83611b3f565b9250827fffffffffffffffffffffffffffffffffffffffffffffffffffffffffffffffff03821115612893576128926124d8565b5b828201905092915050565b7f4e487b7100000000000000000000000000000000000000000000000000000000600052603260045260246000fd5b7f4552433732313a20617070726f766520746f2063616c6c657200000000000000600082015250565b6000612903601983611c75565b915061290e826128cd565b602082019050919050565b60006020820190508181036000830152612932816128f6565b9050919050565b7f4552433732313a207472616e736665722063616c6c6572206973206e6f74206f60008201527f776e6572206e6f7220617070726f766564000000000000000000000000000000602082015250565b6000612995603183611c75565b91506129a082612939565b604082019050919050565b600060208201905081810360008301526129c481612988565b9050919050565b6000815190506129da81611bfe565b92915050565b6000602082840312156129f6576129f5611a7a565b5b6000612a04848285016129cb565b91505092915050565b7f4552433732313a207472616e7366657220746f206e6f6e20455243373231526560008201527f63656976657220696d706c656d656e7465720000000000000000000000000000602082015250565b6000612a69603283611c75565b9150612a7482612a0d565b604082019050919050565b60006020820190508181036000830152612a9881612a5c565b9050919050565b7f4552433732313a207472616e73666572206f6620746f6b656e2074686174206960008201527f73206e6f74206f776e0000000000000000000000000000000000000000000000602082015250565b6000612afb602983611c75565b9150612b0682612a9f565b604082019050919050565b60006020820190508181036000830152612b2a81612aee565b9050919050565b7f4552433732313a207472616e7366657220746f20746865207a65726f2061646460008201527f7265737300000000000000000000000000000000000000000000000000000000602082015250565b6000612b8d602483611c75565b9150612b9882612b31565b604082019050919050565b60006020820190508181036000830152612bbc81612b80565b9050919050565b6000612bce826124c4565b91506000821415612be257612be16124d8565b5b600182039050919050565b6000612bf98284612650565b91508190509291505056fea264697066735822122073f4c8396a694d9abec85cfa36f3889a129144218ed42fd2696fe059c75b679064736f6c634300080c0033",
  "immutableReferences": {},
  "source": "pragma solidity ^0.8.0;\r\nimport \"./tokenData.sol\";\r\nimport \"./interfaceERC721.sol\";\r\n\r\ncontract tokenTest is tokenData, ERC721, ERC165 {\r\n    \r\n    function getVersion() public pure returns (string memory){\r\n        return \"1.0\";\r\n    }\r\n\r\n    function getName() public pure returns (string memory){\r\n        return \"tokenTest\";\r\n    }\r\n\r\n    function balanceOf(address _owner) public view virtual override returns (uint256){\r\n        return tokenBalance[_owner];\r\n    }\r\n\r\n    function ownerOf(uint256 _tokenId) public view virtual override returns (address){\r\n        address owner = tokenOwner[_tokenId];\r\n        require(owner != address(0), \"ERC721: adress 0 invalid\");\r\n        return tokenOwner[_tokenId];\r\n    }\r\n\r\n    function safeTransferFrom(address _from, address _to, uint256 _tokenId) public virtual payable override {\r\n        safeTransferFrom(_from, _to, _tokenId, \"\");\r\n    }\r\n\r\n    \r\n\r\n    function safeTransferFrom(address from, address to, uint256 tokenId, bytes memory _data) public virtual payable override {\r\n        require(_isApprovedOrOwner(msg.sender, tokenId), \"ERC721: transfer caller is not owner nor approved\");\r\n        _safeTransfer(from, to, tokenId, _data);\r\n    }\r\n\r\n    function transferFrom(address _from, address _to, uint _tokenId) public virtual payable override{\r\n\t\tsafeTransferFrom(_from,_to,_tokenId);\r\n\t}\r\n\r\n    function _safeTransfer(address from, address to, uint256 tokenId, bytes memory _data) internal virtual {\r\n        _transfer(from, to, tokenId);\r\n        require(_checkOnERC721Received(from, to, tokenId, _data), \"ERC721: transfer to non ERC721Receiver implementer\");\r\n    }\r\n\r\n    function remove(uint index, string[] memory array )  public pure  {\r\n        require(index<array.length, \"Index out of bounds\");\r\n\r\n        for (uint i = index; i<array.length-1; i++){\r\n            array[i] = array[i+1];\r\n        }\r\n        delete array[array.length-1];\r\n    }\r\n\r\n    function _transfer(address from, address to, uint256 tokenId) internal virtual {\r\n        \r\n        require(ownerOf(tokenId) == from, \"ERC721: transfer of token that is not own\");\r\n        require(to != address(0), \"ERC721: transfer to the zero address\");\r\n        // Clear approvals from the previous owner\r\n        _approve(address(0), tokenId);\r\n       tokenOwner[tokenId] = to;\r\n       uint n=tokenCollection[from].length;\r\n       tokenBalance[from]--;\r\n       uint i=0;\r\n       while (i<n){\r\n           if(keccak256(abi.encodePacked(tokenCollection[from][i])) == keccak256(abi.encodePacked(tokenURIs[tokenId]))){\r\n               delete tokenCollection[from][i];\r\n               remove(i,tokenCollection[from]);\r\n               i=n;\r\n           }\r\n           else{i++;}\r\n       }\r\n        emit Transfer(from, to, tokenId);\r\n    }\r\n\r\n    function approve(address _approveTo, uint256 _tokenId) public virtual payable override {\r\n        require(_approveTo != ownerOf(_tokenId) , \"ERC721: approval to current owner\");\r\n\r\n        require(msg.sender == ownerOf(_tokenId) || isApprovedForAll(ownerOf(_tokenId), msg.sender),\r\n            \"ERC721: approve caller is not owner nor approved for all\"\r\n        );\r\n        _approve(_approveTo, _tokenId);\r\n    }\r\n\r\n    function getApproved(uint256 _tokenId) public view virtual override returns (address) {\r\n        return tokenApprovals[_tokenId];\r\n    }\r\n\r\n    function setApprovalForAll(address _operator, bool _approved) public virtual override {\r\n        require(_operator != msg.sender, \"ERC721: approve to caller\");\r\n        operatorApprovals[msg.sender][_operator] = _approved;\r\n        emit ApprovalForAll(msg.sender, _operator, _approved);\r\n    }\r\n\r\n    function isApprovedForAll(address _owner, address _operator) public view virtual override returns (bool){\r\n        return operatorApprovals[_owner][_operator];\r\n    }\r\n\r\n    function _isApprovedOrOwner(address spender, uint256 tokenId) internal view virtual returns (bool) {\r\n        return((ownerOf(tokenId)==spender) || getApproved(tokenId)==spender || isApprovedForAll(ownerOf(tokenId), spender) );\r\n    }\r\n\r\n    function _approve(address to, uint256 tokenId) internal virtual {\r\n        tokenApprovals[tokenId] = to;\r\n        emit Approval(this.ownerOf(tokenId), to, 0);\r\n    }\r\n\r\n    function supportsInterface(bytes4 interfaceId) public view virtual override(ERC165) returns (bool) {\r\n        return interfaceId == type(ERC721).interfaceId;\r\n    }   \r\n\r\n    function mintToken(address to, string memory tokenURI) external returns (uint tokenId) {\r\n\t\tToken memory token = Token({\r\n\t\t\tmintedBy: msg.sender,\r\n\t\t\tmintedAt: uint64(block.timestamp)\r\n    \t});\r\n        require(to != address(0));\r\n\t\ttokenList.push(token);\r\n\t\ttokenId = tokenList.length;\r\n        tokenURIs[tokenId]=tokenURI;\r\n        tokenCollection[to].push(tokenURI);\r\n        tokenBalance[to] += 1;\r\n        tokenOwner[tokenId] = to;\r\n        emit Transfer(address(0), to, tokenId);\r\n    } \r\n\r\n    function resetTokens(address to) public {\r\n        for (uint i= tokenList.length; i>0; i--){\r\n            tokenList.pop();\r\n            delete tokenURIs[i];\r\n            delete tokenOwner[i];\r\n        }\r\n        tokenBalance[to] =0 ;\r\n        delete tokenCollection[to];\r\n    }\r\n\r\n    function getURIs(address owner) public view returns(string memory){\r\n        string memory uri=\"\";\r\n        for (uint i = 1; i <= tokenList.length; i++) {\r\n            if (tokenOwner[i]==owner) {\r\n                uri=string(abi.encodePacked(uri,tokenURIs[i]));\r\n                continue;\r\n            }\r\n        }    \r\n        return uri;\r\n    }\r\n\r\n    function getURIList(address owner) public view returns(string[] memory){\r\n        return tokenCollection[owner] ;\r\n    }\r\n\r\n    function getTokenID() public view returns (uint256){\r\n        return tokenList.length;\r\n    }\r\n\r\n    \r\n\r\n    function _checkOnERC721Received(address from, address to, uint256 tokenId, bytes memory _data) public view returns (bool)\r\n    {\r\n        /*if (to.isContract()) {\r\n            try ERC721TokenReceiver(to).onERC721Received(msg.sender, from, tokenId, _data) returns (bytes4 retval) {\r\n                return retval == ERC721TokenReceiver(to).onERC721Received.selector;\r\n            } catch (bytes memory reason) {\r\n                if (reason.length == 0) {\r\n                    revert(\"ERC721: transfer to non ERC721Receiver implementer\");\r\n                } else {\r\n                    // solhint-disable-next-line no-inline-assembly\r\n                    assembly {\r\n                        revert(add(32, reason), mload(reason))\r\n                    }\r\n                }\r\n            }\r\n        } else {\r\n            return true;\r\n        } \r\n    }\r\n\r\n    library Address {\r\n        function isContract(address account) internal view returns (bool) {\r\n            uint256 size;\r\n            assembly { size := extcodesize(account) }\r\n            return size > 0;\r\n        }*/\r\n        return true;\r\n    }\r\n}",
  "sourcePath": "C:\\Users\\Administrator\\Desktop\\tokenAccount\\contracts\\tokenTest.sol",
  "compiler": {
    "name": "solc",
    "version": "0.8.12+commit.f00d7308.Emscripten.clang"
  },
  "schemaVersion": "3.4.6",
  "updatedAt": "2022-04-06T07:34:54.206Z",
  "networkType": "ethereum",
  "devdoc": {
    "kind": "dev",
    "methods": {
      "balanceOf(address)": {
        "details": "NFTs assigned to the zero address are considered invalid, and this  function throws for queries about the zero address.",
        "params": {
          "_owner": "An address for whom to query the balance"
        },
        "returns": {
          "_0": "The number of NFTs owned by `_owner`, possibly zero"
        }
      },
      "getApproved(uint256)": {
        "details": "Throws if `_tokenId` is not a valid NFT.",
        "params": {
          "_tokenId": "The NFT to find the approved address for"
        },
        "returns": {
          "_0": "The approved address for this NFT, or the zero address if there is none"
        }
      },
      "isApprovedForAll(address,address)": {
        "params": {
          "_operator": "The address that acts on behalf of the owner",
          "_owner": "The address that owns the NFTs"
        },
        "returns": {
          "_0": "True if `_operator` is an approved operator for `_owner`, false otherwise"
        }
      },
      "ownerOf(uint256)": {
        "details": "NFTs assigned to zero address are considered invalid, and queries  about them do throw.",
        "params": {
          "_tokenId": "The identifier for an NFT"
        },
        "returns": {
          "_0": "The address of the owner of the NFT"
        }
      },
      "safeTransferFrom(address,address,uint256)": {
        "details": "This works identically to the other function with an extra data parameter,  except this function just sets data to \"\".",
        "params": {
          "_from": "The current owner of the NFT",
          "_to": "The new owner",
          "_tokenId": "The NFT to transfer"
        }
      },
      "setApprovalForAll(address,bool)": {
        "details": "Emits the ApprovalForAll event. The contract MUST allow  multiple operators per owner.",
        "params": {
          "_approved": "True if the operator is approved, false to revoke approval",
          "_operator": "Address to add to the set of authorized operators"
        }
      },
      "transferFrom(address,address,uint256)": {
        "details": "Throws unless `msg.sender` is the current owner, an authorized  operator, or the approved address for this NFT. Throws if `_from` is  not the current owner. Throws if `_to` is the zero address. Throws if  `_tokenId` is not a valid NFT.",
        "params": {
          "_from": "The current owner of the NFT",
          "_to": "The new owner",
          "_tokenId": "The NFT to transfer"
        }
      }
    },
    "version": 1
  },
  "userdoc": {
    "kind": "user",
    "methods": {
      "balanceOf(address)": {
        "notice": "Count all NFTs assigned to an owner"
      },
      "getApproved(uint256)": {
        "notice": "Get the approved address for a single NFT"
      },
      "isApprovedForAll(address,address)": {
        "notice": "Query if an address is an authorized operator for another address"
      },
      "ownerOf(uint256)": {
        "notice": "Find the owner of an NFT"
      },
      "safeTransferFrom(address,address,uint256)": {
        "notice": "Transfers the ownership of an NFT from one address to another address"
      },
      "setApprovalForAll(address,bool)": {
        "notice": "Enable or disable approval for a third party (\"operator\") to manage  all of `msg.sender`'s assets"
      },
      "transferFrom(address,address,uint256)": {
        "notice": "Transfer ownership of an NFT -- THE CALLER IS RESPONSIBLE  TO CONFIRM THAT `_to` IS CAPABLE OF RECEIVING NFTS OR ELSE  THEY MAY BE PERMANENTLY LOST"
      }
    },
    "version": 1
  }
}