{
  "contractName": "tokenTest",
  "abi": [
    {
      "anonymous": false,
      "inputs": [
        {
          "indexed": true,
          "internalType": "address",
          "name": "_owner",
          "type": "address"
        },
        {
          "indexed": true,
          "internalType": "address",
          "name": "_approved",
          "type": "address"
        },
        {
          "indexed": true,
          "internalType": "uint256",
          "name": "_tokenId",
          "type": "uint256"
        }
      ],
      "name": "Approval",
      "type": "event"
    },
    {
      "anonymous": false,
      "inputs": [
        {
          "indexed": true,
          "internalType": "address",
          "name": "_owner",
          "type": "address"
        },
        {
          "indexed": true,
          "internalType": "address",
          "name": "_operator",
          "type": "address"
        },
        {
          "indexed": false,
          "internalType": "bool",
          "name": "_approved",
          "type": "bool"
        }
      ],
      "name": "ApprovalForAll",
      "type": "event"
    },
    {
      "anonymous": false,
      "inputs": [
        {
          "indexed": true,
          "internalType": "address",
          "name": "_from",
          "type": "address"
        },
        {
          "indexed": true,
          "internalType": "address",
          "name": "_to",
          "type": "address"
        },
        {
          "indexed": true,
          "internalType": "uint256",
          "name": "_tokenId",
          "type": "uint256"
        }
      ],
      "name": "Transfer",
      "type": "event"
    },
    {
      "inputs": [],
      "name": "getVersion",
      "outputs": [
        {
          "internalType": "string",
          "name": "",
          "type": "string"
        }
      ],
      "stateMutability": "pure",
      "type": "function"
    },
    {
      "inputs": [],
      "name": "getName",
      "outputs": [
        {
          "internalType": "string",
          "name": "",
          "type": "string"
        }
      ],
      "stateMutability": "pure",
      "type": "function"
    },
    {
      "inputs": [
        {
          "internalType": "address",
          "name": "_owner",
          "type": "address"
        }
      ],
      "name": "balanceOf",
      "outputs": [
        {
          "internalType": "uint256",
          "name": "",
          "type": "uint256"
        }
      ],
      "stateMutability": "view",
      "type": "function"
    },
    {
      "inputs": [
        {
          "internalType": "uint256",
          "name": "_tokenId",
          "type": "uint256"
        }
      ],
      "name": "ownerOf",
      "outputs": [
        {
          "internalType": "address",
          "name": "",
          "type": "address"
        }
      ],
      "stateMutability": "view",
      "type": "function"
    },
    {
      "inputs": [
        {
          "internalType": "address",
          "name": "_from",
          "type": "address"
        },
        {
          "internalType": "address",
          "name": "_to",
          "type": "address"
        },
        {
          "internalType": "uint256",
          "name": "_tokenId",
          "type": "uint256"
        }
      ],
      "name": "safeTransferFrom",
      "outputs": [],
      "stateMutability": "payable",
      "type": "function"
    },
    {
      "inputs": [
        {
          "internalType": "address",
          "name": "from",
          "type": "address"
        },
        {
          "internalType": "address",
          "name": "to",
          "type": "address"
        },
        {
          "internalType": "uint256",
          "name": "tokenId",
          "type": "uint256"
        },
        {
          "internalType": "bytes",
          "name": "_data",
          "type": "bytes"
        }
      ],
      "name": "safeTransferFrom",
      "outputs": [],
      "stateMutability": "payable",
      "type": "function"
    },
    {
      "inputs": [
        {
          "internalType": "address",
          "name": "_from",
          "type": "address"
        },
        {
          "internalType": "address",
          "name": "_to",
          "type": "address"
        },
        {
          "internalType": "uint256",
          "name": "_tokenId",
          "type": "uint256"
        }
      ],
      "name": "transferFrom",
      "outputs": [],
      "stateMutability": "payable",
      "type": "function"
    },
    {
      "inputs": [
        {
          "internalType": "uint256",
          "name": "index",
          "type": "uint256"
        },
        {
          "internalType": "string[]",
          "name": "array",
          "type": "string[]"
        }
      ],
      "name": "remove",
      "outputs": [],
      "stateMutability": "pure",
      "type": "function"
    },
    {
      "inputs": [
        {
          "internalType": "address",
          "name": "_approveTo",
          "type": "address"
        },
        {
          "internalType": "uint256",
          "name": "_tokenId",
          "type": "uint256"
        }
      ],
      "name": "approve",
      "outputs": [],
      "stateMutability": "payable",
      "type": "function"
    },
    {
      "inputs": [
        {
          "internalType": "uint256",
          "name": "_tokenId",
          "type": "uint256"
        }
      ],
      "name": "getApproved",
      "outputs": [
        {
          "internalType": "address",
          "name": "",
          "type": "address"
        }
      ],
      "stateMutability": "view",
      "type": "function"
    },
    {
      "inputs": [
        {
          "internalType": "address",
          "name": "_operator",
          "type": "address"
        },
        {
          "internalType": "bool",
          "name": "_approved",
          "type": "bool"
        }
      ],
      "name": "setApprovalForAll",
      "outputs": [],
      "stateMutability": "nonpayable",
      "type": "function"
    },
    {
      "inputs": [
        {
          "internalType": "address",
          "name": "_owner",
          "type": "address"
        },
        {
          "internalType": "address",
          "name": "_operator",
          "type": "address"
        }
      ],
      "name": "isApprovedForAll",
      "outputs": [
        {
          "internalType": "bool",
          "name": "",
          "type": "bool"
        }
      ],
      "stateMutability": "view",
      "type": "function"
    },
    {
      "inputs": [
        {
          "internalType": "bytes4",
          "name": "interfaceId",
          "type": "bytes4"
        }
      ],
      "name": "supportsInterface",
      "outputs": [
        {
          "internalType": "bool",
          "name": "",
          "type": "bool"
        }
      ],
      "stateMutability": "view",
      "type": "function"
    },
    {
      "inputs": [
        {
          "internalType": "address",
          "name": "to",
          "type": "address"
        },
        {
          "internalType": "string",
          "name": "tokenURI",
          "type": "string"
        }
      ],
      "name": "mintToken",
      "outputs": [
        {
          "internalType": "uint256",
          "name": "tokenId",
          "type": "uint256"
        }
      ],
      "stateMutability": "nonpayable",
      "type": "function"
    },
    {
      "inputs": [
        {
          "internalType": "address",
          "name": "to",
          "type": "address"
        }
      ],
      "name": "resetTokens",
      "outputs": [],
      "stateMutability": "nonpayable",
      "type": "function"
    },
    {
      "inputs": [
        {
          "internalType": "address",
          "name": "owner",
          "type": "address"
        }
      ],
      "name": "getURIs",
      "outputs": [
        {
          "internalType": "string",
          "name": "",
          "type": "string"
        }
      ],
      "stateMutability": "view",
      "type": "function"
    },
    {
      "inputs": [
        {
          "internalType": "address",
          "name": "owner",
          "type": "address"
        }
      ],
      "name": "getURIList",
      "outputs": [
        {
          "internalType": "string[]",
          "name": "",
          "type": "string[]"
        }
      ],
      "stateMutability": "view",
      "type": "function"
    },
    {
      "inputs": [],
      "name": "getTokenID",
      "outputs": [
        {
          "internalType": "uint256",
          "name": "",
          "type": "uint256"
        }
      ],
      "stateMutability": "view",
      "type": "function"
    },
    {
      "inputs": [
        {
          "internalType": "address",
          "name": "from",
          "type": "address"
        },
        {
          "internalType": "address",
          "name": "to",
          "type": "address"
        },
        {
          "internalType": "uint256",
          "name": "tokenId",
          "type": "uint256"
        },
        {
          "internalType": "bytes",
          "name": "_data",
          "type": "bytes"
        }
      ],
      "name": "_checkOnERC721Received",
      "outputs": [
        {
          "internalType": "bool",
          "name": "",
          "type": "bool"
        }
      ],
      "stateMutability": "view",
      "type": "function"
    }
  ],
  "bytecode": "0x608060405234801561001057600080fd5b50612c90806100206000396000f3fe6080604052600436106101145760003560e01c806346d0a4aa116100a05780637360cbba116100645780637360cbba146103c25780637fcb2989146103eb578063a22cb46514610428578063b88d4fde14610451578063e985e9c51461046d57610114565b806346d0a4aa146102b75780634802693d146102e05780636352211e1461031d5780636ba367a31461035a57806370a082311461038557610114565b806317d7de7c116100e757806317d7de7c146101da5780631fd01de11461020557806323b872dd146102425780633d02d0c91461025e57806342842e0e1461029b57610114565b806301ffc9a714610119578063081812fc14610156578063095ea7b3146101935780630d8e6e2c146101af575b600080fd5b34801561012557600080fd5b50610140600480360381019061013b9190611afe565b6104aa565b60405161014d9190611b46565b60405180910390f35b34801561016257600080fd5b5061017d60048036038101906101789190611b97565b610514565b60405161018a9190611c05565b60405180910390f35b6101ad60048036038101906101a89190611c4c565b610551565b005b3480156101bb57600080fd5b506101c4610665565b6040516101d19190611d25565b60405180910390f35b3480156101e657600080fd5b506101ef6106a2565b6040516101fc9190611d25565b60405180910390f35b34801561021157600080fd5b5061022c60048036038101906102279190611e7c565b6106df565b6040516102399190611b46565b60405180910390f35b61025c60048036038101906102579190611eff565b6106ed565b005b34801561026a57600080fd5b5061028560048036038101906102809190611ff3565b6106fd565b604051610292919061205e565b60405180910390f35b6102b560048036038101906102b09190611eff565b6109f8565b005b3480156102c357600080fd5b506102de60048036038101906102d99190612079565b610a18565b005b3480156102ec57600080fd5b5061030760048036038101906103029190612079565b610bd4565b6040516103149190611d25565b60405180910390f35b34801561032957600080fd5b50610344600480360381019061033f9190611b97565b610cbd565b6040516103519190611c05565b60405180910390f35b34801561036657600080fd5b5061036f610da2565b60405161037c919061205e565b60405180910390f35b34801561039157600080fd5b506103ac60048036038101906103a79190612079565b610dae565b6040516103b9919061205e565b60405180910390f35b3480156103ce57600080fd5b506103e960048036038101906103e4919061218c565b610e15565b005b3480156103f757600080fd5b50610412600480360381019061040d9190612079565b610efc565b60405161041f91906122f4565b60405180910390f35b34801561043457600080fd5b5061044f600480360381019061044a9190612342565b611014565b005b61046b60048036038101906104669190611e7c565b611180565b005b34801561047957600080fd5b50610494600480360381019061048f9190612382565b6111db565b6040516104a19190611b46565b60405180910390f35b60007f80ac58cd000000000000000000000000000000000000000000000000000000007bffffffffffffffffffffffffffffffffffffffffffffffffffffffff1916827bffffffffffffffffffffffffffffffffffffffffffffffffffffffff1916149050919050565b60006005600083815260200190815260200160002060009054906101000a900473ffffffffffffffffffffffffffffffffffffffff169050919050565b61055a81610cbd565b73ffffffffffffffffffffffffffffffffffffffff168273ffffffffffffffffffffffffffffffffffffffff1614156105c8576040517f08c379a00000000000000000000000000000000000000000000000000000000081526004016105bf90612434565b60405180910390fd5b6105d181610cbd565b73ffffffffffffffffffffffffffffffffffffffff163373ffffffffffffffffffffffffffffffffffffffff161480610618575061061761061182610cbd565b336111db565b5b610657576040517f08c379a000000000000000000000000000000000000000000000000000000000815260040161064e906124c6565b60405180910390fd5b610661828261126f565b5050565b60606040518060400160405280600381526020017f302e390000000000000000000000000000000000000000000000000000000000815250905090565b60606040518060400160405280600981526020017f746f6b656e546573740000000000000000000000000000000000000000000000815250905090565b600060019050949350505050565b6106f88383836109f8565b505050565b60008060405180604001604052803373ffffffffffffffffffffffffffffffffffffffff1681526020014267ffffffffffffffff168152509050600073ffffffffffffffffffffffffffffffffffffffff168473ffffffffffffffffffffffffffffffffffffffff16141561077157600080fd5b6000819080600181540180825580915050600190039060005260206000200160009091909190915060008201518160000160006101000a81548173ffffffffffffffffffffffffffffffffffffffff021916908373ffffffffffffffffffffffffffffffffffffffff16021790555060208201518160000160146101000a81548167ffffffffffffffff021916908367ffffffffffffffff160217905550505060008054905091508260026000848152602001908152602001600020908051906020019061084092919061196a565b50600160008573ffffffffffffffffffffffffffffffffffffffff1673ffffffffffffffffffffffffffffffffffffffff168152602001908152602001600020839080600181540180825580915050600190039060005260206000200160009091909190915090805190602001906108b992919061196a565b506001600460008673ffffffffffffffffffffffffffffffffffffffff1673ffffffffffffffffffffffffffffffffffffffff16815260200190815260200160002060008282829054906101000a900467ffffffffffffffff1661091d9190612529565b92506101000a81548167ffffffffffffffff021916908367ffffffffffffffff160217905550836003600084815260200190815260200160002060006101000a81548173ffffffffffffffffffffffffffffffffffffffff021916908373ffffffffffffffffffffffffffffffffffffffff160217905550818473ffffffffffffffffffffffffffffffffffffffff16600073ffffffffffffffffffffffffffffffffffffffff167fddf252ad1be2c89b69c2b068fc378daa952ba7f163c4a11628f55a4df523b3ef60405160405180910390a45092915050565b610a1383838360405180602001604052806000815250611180565b505050565b6000808054905090505b6000811115610b85576000805480610a3d57610a3c612567565b5b60019003818190600052602060002001600080820160006101000a81549073ffffffffffffffffffffffffffffffffffffffff02191690556000820160146101000a81549067ffffffffffffffff021916905550509055600260008281526020019081526020016000206000610ab391906119f0565b6001600460008473ffffffffffffffffffffffffffffffffffffffff1673ffffffffffffffffffffffffffffffffffffffff16815260200190815260200160002060008282829054906101000a900467ffffffffffffffff16610b169190612596565b92506101000a81548167ffffffffffffffff021916908367ffffffffffffffff1602179055506003600082815260200190815260200160002060006101000a81549073ffffffffffffffffffffffffffffffffffffffff02191690558080610b7d906125ca565b915050610a22565b50600160008273ffffffffffffffffffffffffffffffffffffffff1673ffffffffffffffffffffffffffffffffffffffff1681526020019081526020016000206000610bd19190611a30565b50565b606060006040518060200160405280600081525090506000600190505b6000805490508111610cb3578373ffffffffffffffffffffffffffffffffffffffff166003600083815260200190815260200160002060009054906101000a900473ffffffffffffffffffffffffffffffffffffffff1673ffffffffffffffffffffffffffffffffffffffff161415610c9f578160026000838152602001908152602001600020604051602001610c89929190612725565b6040516020818303038152906040529150610ca0565b5b8080610cab90612749565b915050610bf1565b5080915050919050565b6000806003600084815260200190815260200160002060009054906101000a900473ffffffffffffffffffffffffffffffffffffffff169050600073ffffffffffffffffffffffffffffffffffffffff168173ffffffffffffffffffffffffffffffffffffffff161415610d66576040517f08c379a0000000000000000000000000000000000000000000000000000000008152600401610d5d906127de565b60405180910390fd5b6003600084815260200190815260200160002060009054906101000a900473ffffffffffffffffffffffffffffffffffffffff16915050919050565b60008080549050905090565b6000600460008373ffffffffffffffffffffffffffffffffffffffff1673ffffffffffffffffffffffffffffffffffffffff16815260200190815260200160002060009054906101000a900467ffffffffffffffff1667ffffffffffffffff169050919050565b80518210610e58576040517f08c379a0000000000000000000000000000000000000000000000000000000008152600401610e4f9061284a565b60405180910390fd5b60008290505b60018251610e6c919061286a565b811015610ecb5781600182610e81919061289e565b81518110610e9257610e916128f4565b5b6020026020010151828281518110610ead57610eac6128f4565b5b60200260200101819052508080610ec390612749565b915050610e5e565b508060018251610edb919061286a565b81518110610eec57610eeb6128f4565b5b6020026020010160608152505050565b6060600160008373ffffffffffffffffffffffffffffffffffffffff1673ffffffffffffffffffffffffffffffffffffffff168152602001908152602001600020805480602002602001604051908101604052809291908181526020016000905b82821015611009578382906000526020600020018054610f7c9061265f565b80601f0160208091040260200160405190810160405280929190818152602001828054610fa89061265f565b8015610ff55780601f10610fca57610100808354040283529160200191610ff5565b820191906000526020600020905b815481529060010190602001808311610fd857829003601f168201915b505050505081526020019060010190610f5d565b505050509050919050565b3373ffffffffffffffffffffffffffffffffffffffff168273ffffffffffffffffffffffffffffffffffffffff161415611083576040517f08c379a000000000000000000000000000000000000000000000000000000000815260040161107a9061296f565b60405180910390fd5b80600660003373ffffffffffffffffffffffffffffffffffffffff1673ffffffffffffffffffffffffffffffffffffffff16815260200190815260200160002060008473ffffffffffffffffffffffffffffffffffffffff1673ffffffffffffffffffffffffffffffffffffffff16815260200190815260200160002060006101000a81548160ff0219169083151502179055508173ffffffffffffffffffffffffffffffffffffffff163373ffffffffffffffffffffffffffffffffffffffff167f17307eab39ab6107e8899845ad3d59bd9653f200f220920489ca2b5937696c31836040516111749190611b46565b60405180910390a35050565b61118a338361139a565b6111c9576040517f08c379a00000000000000000000000000000000000000000000000000000000081526004016111c090612a01565b60405180910390fd5b6111d584848484611432565b50505050565b6000600660008473ffffffffffffffffffffffffffffffffffffffff1673ffffffffffffffffffffffffffffffffffffffff16815260200190815260200160002060008373ffffffffffffffffffffffffffffffffffffffff1673ffffffffffffffffffffffffffffffffffffffff16815260200190815260200160002060009054906101000a900460ff16905092915050565b816005600083815260200190815260200160002060006101000a81548173ffffffffffffffffffffffffffffffffffffffff021916908373ffffffffffffffffffffffffffffffffffffffff16021790555060008273ffffffffffffffffffffffffffffffffffffffff163073ffffffffffffffffffffffffffffffffffffffff16636352211e846040518263ffffffff1660e01b8152600401611313919061205e565b602060405180830381865afa158015611330573d6000803e3d6000fd5b505050506040513d601f19601f820116820180604052508101906113549190612a36565b73ffffffffffffffffffffffffffffffffffffffff167f8c5be1e5ebec7d5bd14f71427d1e84f3dd0314c0f7b2291e5b200ac8c7c3b92560405160405180910390a45050565b60008273ffffffffffffffffffffffffffffffffffffffff166113bc83610cbd565b73ffffffffffffffffffffffffffffffffffffffff16148061141157508273ffffffffffffffffffffffffffffffffffffffff166113f983610514565b73ffffffffffffffffffffffffffffffffffffffff16145b8061142a575061142961142383610cbd565b846111db565b5b905092915050565b61143d84848461148e565b611449848484846106df565b611488576040517f08c379a000000000000000000000000000000000000000000000000000000000815260040161147f90612ad5565b60405180910390fd5b50505050565b8273ffffffffffffffffffffffffffffffffffffffff166114ae82610cbd565b73ffffffffffffffffffffffffffffffffffffffff1614611504576040517f08c379a00000000000000000000000000000000000000000000000000000000081526004016114fb90612b67565b60405180910390fd5b600073ffffffffffffffffffffffffffffffffffffffff168273ffffffffffffffffffffffffffffffffffffffff161415611574576040517f08c379a000000000000000000000000000000000000000000000000000000000815260040161156b90612bf9565b60405180910390fd5b61157f60008261126f565b816003600083815260200190815260200160002060006101000a81548173ffffffffffffffffffffffffffffffffffffffff021916908373ffffffffffffffffffffffffffffffffffffffff1602179055506000600160008573ffffffffffffffffffffffffffffffffffffffff1673ffffffffffffffffffffffffffffffffffffffff168152602001908152602001600020805490509050600460008573ffffffffffffffffffffffffffffffffffffffff1673ffffffffffffffffffffffffffffffffffffffff168152602001908152602001600020600081819054906101000a900467ffffffffffffffff168092919061167b90612c19565b91906101000a81548167ffffffffffffffff021916908367ffffffffffffffff1602179055505060005b8181101561190857600260008481526020019081526020016000206040516020016116d09190612c43565b60405160208183030381529060405280519060200120600160008773ffffffffffffffffffffffffffffffffffffffff1673ffffffffffffffffffffffffffffffffffffffff1681526020019081526020016000208281548110611737576117366128f4565b5b906000526020600020016040516020016117519190612c43565b6040516020818303038152906040528051906020012014156118f457600160008673ffffffffffffffffffffffffffffffffffffffff1673ffffffffffffffffffffffffffffffffffffffff16815260200190815260200160002081815481106117be576117bd6128f4565b5b9060005260206000200160006117d491906119f0565b6118ec81600160008873ffffffffffffffffffffffffffffffffffffffff1673ffffffffffffffffffffffffffffffffffffffff168152602001908152602001600020805480602002602001604051908101604052809291908181526020016000905b828210156118e35783829060005260206000200180546118569061265f565b80601f01602080910402602001604051908101604052809291908181526020018280546118829061265f565b80156118cf5780601f106118a4576101008083540402835291602001916118cf565b820191906000526020600020905b8154815290600101906020018083116118b257829003601f168201915b505050505081526020019060010190611837565b50505050610e15565b819050611903565b80806118ff90612749565b9150505b6116a5565b828473ffffffffffffffffffffffffffffffffffffffff168673ffffffffffffffffffffffffffffffffffffffff167fddf252ad1be2c89b69c2b068fc378daa952ba7f163c4a11628f55a4df523b3ef60405160405180910390a45050505050565b8280546119769061265f565b90600052602060002090601f01602090048101928261199857600085556119df565b82601f106119b157805160ff19168380011785556119df565b828001600101855582156119df579182015b828111156119de5782518255916020019190600101906119c3565b5b5090506119ec9190611a51565b5090565b5080546119fc9061265f565b6000825580601f10611a0e5750611a2d565b601f016020900490600052602060002090810190611a2c9190611a51565b5b50565b5080546000825590600052602060002090810190611a4e9190611a6e565b50565b5b80821115611a6a576000816000905550600101611a52565b5090565b5b80821115611a8e5760008181611a8591906119f0565b50600101611a6f565b5090565b6000604051905090565b600080fd5b600080fd5b60007fffffffff0000000000000000000000000000000000000000000000000000000082169050919050565b611adb81611aa6565b8114611ae657600080fd5b50565b600081359050611af881611ad2565b92915050565b600060208284031215611b1457611b13611a9c565b5b6000611b2284828501611ae9565b91505092915050565b60008115159050919050565b611b4081611b2b565b82525050565b6000602082019050611b5b6000830184611b37565b92915050565b6000819050919050565b611b7481611b61565b8114611b7f57600080fd5b50565b600081359050611b9181611b6b565b92915050565b600060208284031215611bad57611bac611a9c565b5b6000611bbb84828501611b82565b91505092915050565b600073ffffffffffffffffffffffffffffffffffffffff82169050919050565b6000611bef82611bc4565b9050919050565b611bff81611be4565b82525050565b6000602082019050611c1a6000830184611bf6565b92915050565b611c2981611be4565b8114611c3457600080fd5b50565b600081359050611c4681611c20565b92915050565b60008060408385031215611c6357611c62611a9c565b5b6000611c7185828601611c37565b9250506020611c8285828601611b82565b9150509250929050565b600081519050919050565b600082825260208201905092915050565b60005b83811015611cc6578082015181840152602081019050611cab565b83811115611cd5576000848401525b50505050565b6000601f19601f8301169050919050565b6000611cf782611c8c565b611d018185611c97565b9350611d11818560208601611ca8565b611d1a81611cdb565b840191505092915050565b60006020820190508181036000830152611d3f8184611cec565b905092915050565b600080fd5b600080fd5b7f4e487b7100000000000000000000000000000000000000000000000000000000600052604160045260246000fd5b611d8982611cdb565b810181811067ffffffffffffffff82111715611da857611da7611d51565b5b80604052505050565b6000611dbb611a92565b9050611dc78282611d80565b919050565b600067ffffffffffffffff821115611de757611de6611d51565b5b611df082611cdb565b9050602081019050919050565b82818337600083830152505050565b6000611e1f611e1a84611dcc565b611db1565b905082815260208101848484011115611e3b57611e3a611d4c565b5b611e46848285611dfd565b509392505050565b600082601f830112611e6357611e62611d47565b5b8135611e73848260208601611e0c565b91505092915050565b60008060008060808587031215611e9657611e95611a9c565b5b6000611ea487828801611c37565b9450506020611eb587828801611c37565b9350506040611ec687828801611b82565b925050606085013567ffffffffffffffff811115611ee757611ee6611aa1565b5b611ef387828801611e4e565b91505092959194509250565b600080600060608486031215611f1857611f17611a9c565b5b6000611f2686828701611c37565b9350506020611f3786828701611c37565b9250506040611f4886828701611b82565b9150509250925092565b600067ffffffffffffffff821115611f6d57611f6c611d51565b5b611f7682611cdb565b9050602081019050919050565b6000611f96611f9184611f52565b611db1565b905082815260208101848484011115611fb257611fb1611d4c565b5b611fbd848285611dfd565b509392505050565b600082601f830112611fda57611fd9611d47565b5b8135611fea848260208601611f83565b91505092915050565b6000806040838503121561200a57612009611a9c565b5b600061201885828601611c37565b925050602083013567ffffffffffffffff81111561203957612038611aa1565b5b61204585828601611fc5565b9150509250929050565b61205881611b61565b82525050565b6000602082019050612073600083018461204f565b92915050565b60006020828403121561208f5761208e611a9c565b5b600061209d84828501611c37565b91505092915050565b600067ffffffffffffffff8211156120c1576120c0611d51565b5b602082029050602081019050919050565b600080fd5b60006120ea6120e5846120a6565b611db1565b9050808382526020820190506020840283018581111561210d5761210c6120d2565b5b835b8181101561215457803567ffffffffffffffff81111561213257612131611d47565b5b80860161213f8982611fc5565b8552602085019450505060208101905061210f565b5050509392505050565b600082601f83011261217357612172611d47565b5b81356121838482602086016120d7565b91505092915050565b600080604083850312156121a3576121a2611a9c565b5b60006121b185828601611b82565b925050602083013567ffffffffffffffff8111156121d2576121d1611aa1565b5b6121de8582860161215e565b9150509250929050565b600081519050919050565b600082825260208201905092915050565b6000819050602082019050919050565b600082825260208201905092915050565b600061223082611c8c565b61223a8185612214565b935061224a818560208601611ca8565b61225381611cdb565b840191505092915050565b600061226a8383612225565b905092915050565b6000602082019050919050565b600061228a826121e8565b61229481856121f3565b9350836020820285016122a685612204565b8060005b858110156122e257848403895281516122c3858261225e565b94506122ce83612272565b925060208a019950506001810190506122aa565b50829750879550505050505092915050565b6000602082019050818103600083015261230e818461227f565b905092915050565b61231f81611b2b565b811461232a57600080fd5b50565b60008135905061233c81612316565b92915050565b6000806040838503121561235957612358611a9c565b5b600061236785828601611c37565b92505060206123788582860161232d565b9150509250929050565b6000806040838503121561239957612398611a9c565b5b60006123a785828601611c37565b92505060206123b885828601611c37565b9150509250929050565b7f4552433732313a20617070726f76616c20746f2063757272656e74206f776e6560008201527f7200000000000000000000000000000000000000000000000000000000000000602082015250565b600061241e602183611c97565b9150612429826123c2565b604082019050919050565b6000602082019050818103600083015261244d81612411565b9050919050565b7f4552433732313a20617070726f76652063616c6c6572206973206e6f74206f7760008201527f6e6572206e6f7220617070726f76656420666f7220616c6c0000000000000000602082015250565b60006124b0603883611c97565b91506124bb82612454565b604082019050919050565b600060208201905081810360008301526124df816124a3565b9050919050565b600067ffffffffffffffff82169050919050565b7f4e487b7100000000000000000000000000000000000000000000000000000000600052601160045260246000fd5b6000612534826124e6565b915061253f836124e6565b92508267ffffffffffffffff0382111561255c5761255b6124fa565b5b828201905092915050565b7f4e487b7100000000000000000000000000000000000000000000000000000000600052603160045260246000fd5b60006125a1826124e6565b91506125ac836124e6565b9250828210156125bf576125be6124fa565b5b828203905092915050565b60006125d582611b61565b915060008214156125e9576125e86124fa565b5b600182039050919050565b600081905092915050565b600061260a82611c8c565b61261481856125f4565b9350612624818560208601611ca8565b80840191505092915050565b7f4e487b7100000000000000000000000000000000000000000000000000000000600052602260045260246000fd5b6000600282049050600182168061267757607f821691505b6020821081141561268b5761268a612630565b5b50919050565b60008190508160005260206000209050919050565b600081546126b38161265f565b6126bd81866125f4565b945060018216600081146126d857600181146126e95761271c565b60ff1983168652818601935061271c565b6126f285612691565b60005b83811015612714578154818901526001820191506020810190506126f5565b838801955050505b50505092915050565b600061273182856125ff565b915061273d82846126a6565b91508190509392505050565b600061275482611b61565b91507fffffffffffffffffffffffffffffffffffffffffffffffffffffffffffffffff821415612787576127866124fa565b5b600182019050919050565b7f4552433732313a20616472657373203020696e76616c69640000000000000000600082015250565b60006127c8601883611c97565b91506127d382612792565b602082019050919050565b600060208201905081810360008301526127f7816127bb565b9050919050565b7f496e646578206f7574206f6620626f756e647300000000000000000000000000600082015250565b6000612834601383611c97565b915061283f826127fe565b602082019050919050565b6000602082019050818103600083015261286381612827565b9050919050565b600061287582611b61565b915061288083611b61565b925082821015612893576128926124fa565b5b828203905092915050565b60006128a982611b61565b91506128b483611b61565b9250827fffffffffffffffffffffffffffffffffffffffffffffffffffffffffffffffff038211156128e9576128e86124fa565b5b828201905092915050565b7f4e487b7100000000000000000000000000000000000000000000000000000000600052603260045260246000fd5b7f4552433732313a20617070726f766520746f2063616c6c657200000000000000600082015250565b6000612959601983611c97565b915061296482612923565b602082019050919050565b600060208201905081810360008301526129888161294c565b9050919050565b7f4552433732313a207472616e736665722063616c6c6572206973206e6f74206f60008201527f776e6572206e6f7220617070726f766564000000000000000000000000000000602082015250565b60006129eb603183611c97565b91506129f68261298f565b604082019050919050565b60006020820190508181036000830152612a1a816129de565b9050919050565b600081519050612a3081611c20565b92915050565b600060208284031215612a4c57612a4b611a9c565b5b6000612a5a84828501612a21565b91505092915050565b7f4552433732313a207472616e7366657220746f206e6f6e20455243373231526560008201527f63656976657220696d706c656d656e7465720000000000000000000000000000602082015250565b6000612abf603283611c97565b9150612aca82612a63565b604082019050919050565b60006020820190508181036000830152612aee81612ab2565b9050919050565b7f4552433732313a207472616e73666572206f6620746f6b656e2074686174206960008201527f73206e6f74206f776e0000000000000000000000000000000000000000000000602082015250565b6000612b51602983611c97565b9150612b5c82612af5565b604082019050919050565b60006020820190508181036000830152612b8081612b44565b9050919050565b7f4552433732313a207472616e7366657220746f20746865207a65726f2061646460008201527f7265737300000000000000000000000000000000000000000000000000000000602082015250565b6000612be3602483611c97565b9150612bee82612b87565b604082019050919050565b60006020820190508181036000830152612c1281612bd6565b9050919050565b6000612c24826124e6565b91506000821415612c3857612c376124fa565b5b600182039050919050565b6000612c4f82846126a6565b91508190509291505056fea264697066735822122096a2ee9e1d570b70c5c03e03f534206093c84dcb91f1632baaf88ff6368979de64736f6c634300080c0033",
  "immutableReferences": {},
  "source": "pragma solidity ^0.8.0;\r\nimport \"./tokenData.sol\";\r\nimport \"./interfaceERC721.sol\";\r\n\r\ncontract tokenTest is tokenData, ERC721, ERC165 {\r\n    \r\n    function getVersion() public pure returns (string memory){\r\n        return \"0.9\";\r\n    }\r\n\r\n    function getName() public pure returns (string memory){\r\n        return \"tokenTest\";\r\n    }\r\n\r\n    function balanceOf(address _owner) public view virtual override returns (uint256){\r\n        return tokenBalance[_owner];\r\n    }\r\n\r\n    function ownerOf(uint256 _tokenId) public view virtual override returns (address){\r\n        address owner = tokenOwner[_tokenId];\r\n        require(owner != address(0), \"ERC721: adress 0 invalid\");\r\n        return tokenOwner[_tokenId];\r\n    }\r\n\r\n    function safeTransferFrom(address _from, address _to, uint256 _tokenId) public virtual payable override {\r\n        safeTransferFrom(_from, _to, _tokenId, \"\");\r\n    }\r\n\r\n    \r\n\r\n    function safeTransferFrom(address from, address to, uint256 tokenId, bytes memory _data) public virtual payable override {\r\n        require(_isApprovedOrOwner(msg.sender, tokenId), \"ERC721: transfer caller is not owner nor approved\");\r\n        _safeTransfer(from, to, tokenId, _data);\r\n    }\r\n\r\n    function transferFrom(address _from, address _to, uint _tokenId) public virtual payable override{\r\n\t\tsafeTransferFrom(_from,_to,_tokenId);\r\n\t}\r\n\r\n    function _safeTransfer(address from, address to, uint256 tokenId, bytes memory _data) internal virtual {\r\n        _transfer(from, to, tokenId);\r\n        require(_checkOnERC721Received(from, to, tokenId, _data), \"ERC721: transfer to non ERC721Receiver implementer\");\r\n    }\r\n\r\n    function remove(uint index, string[] memory array )  public pure  {\r\n        require(index<array.length, \"Index out of bounds\");\r\n\r\n        for (uint i = index; i<array.length-1; i++){\r\n            array[i] = array[i+1];\r\n        }\r\n        delete array[array.length-1];\r\n    }\r\n\r\n    function _transfer(address from, address to, uint256 tokenId) internal virtual {\r\n        \r\n        require(ownerOf(tokenId) == from, \"ERC721: transfer of token that is not own\");\r\n        require(to != address(0), \"ERC721: transfer to the zero address\");\r\n        // Clear approvals from the previous owner\r\n        _approve(address(0), tokenId);\r\n       tokenOwner[tokenId] = to;\r\n       uint n=tokenCollection[from].length;\r\n       tokenBalance[from]--;\r\n       uint i=0;\r\n       while (i<n){\r\n           if(keccak256(abi.encodePacked(tokenCollection[from][i])) == keccak256(abi.encodePacked(tokenURIs[tokenId]))){\r\n               delete tokenCollection[from][i];\r\n               remove(i,tokenCollection[from]);\r\n               i=n;\r\n           }\r\n           else{i++;}\r\n       }\r\n        emit Transfer(from, to, tokenId);\r\n    }\r\n\r\n    function approve(address _approveTo, uint256 _tokenId) public virtual payable override {\r\n        require(_approveTo != ownerOf(_tokenId) , \"ERC721: approval to current owner\");\r\n\r\n        require(msg.sender == ownerOf(_tokenId) || isApprovedForAll(ownerOf(_tokenId), msg.sender),\r\n            \"ERC721: approve caller is not owner nor approved for all\"\r\n        );\r\n        _approve(_approveTo, _tokenId);\r\n    }\r\n\r\n    function getApproved(uint256 _tokenId) public view virtual override returns (address) {\r\n        return tokenApprovals[_tokenId];\r\n    }\r\n\r\n    function setApprovalForAll(address _operator, bool _approved) public virtual override {\r\n        require(_operator != msg.sender, \"ERC721: approve to caller\");\r\n        operatorApprovals[msg.sender][_operator] = _approved;\r\n        emit ApprovalForAll(msg.sender, _operator, _approved);\r\n    }\r\n\r\n    function isApprovedForAll(address _owner, address _operator) public view virtual override returns (bool){\r\n        return operatorApprovals[_owner][_operator];\r\n    }\r\n\r\n    function _isApprovedOrOwner(address spender, uint256 tokenId) internal view virtual returns (bool) {\r\n        return((ownerOf(tokenId)==spender) || getApproved(tokenId)==spender || isApprovedForAll(ownerOf(tokenId), spender) );\r\n    }\r\n\r\n    function _approve(address to, uint256 tokenId) internal virtual {\r\n        tokenApprovals[tokenId] = to;\r\n        emit Approval(this.ownerOf(tokenId), to, 0);\r\n    }\r\n\r\n    function supportsInterface(bytes4 interfaceId) public view virtual override(ERC165) returns (bool) {\r\n        return interfaceId == type(ERC721).interfaceId;\r\n    }   \r\n\r\n    function mintToken(address to, string memory tokenURI) external returns (uint tokenId) {\r\n\t\tToken memory token = Token({\r\n\t\t\tmintedBy: msg.sender,\r\n\t\t\tmintedAt: uint64(block.timestamp)\r\n    \t});\r\n        require(to != address(0));\r\n\t\ttokenList.push(token);\r\n\t\ttokenId = tokenList.length;\r\n        tokenURIs[tokenId]=tokenURI;\r\n        tokenCollection[to].push(tokenURI);\r\n        tokenBalance[to] += 1;\r\n        tokenOwner[tokenId] = to;\r\n        emit Transfer(address(0), to, tokenId);\r\n    } \r\n\r\n    function resetTokens(address to) public {\r\n        for (uint i= tokenList.length; i>0; i--){\r\n            tokenList.pop();\r\n            delete tokenURIs[i];\r\n            tokenBalance[to] -=1 ;\r\n            delete tokenOwner[i];\r\n        }\r\n        delete tokenCollection[to];\r\n        \r\n    }\r\n\r\n    function getURIs(address owner) public view returns(string memory){\r\n        string memory uri=\"\";\r\n        for (uint i = 1; i <= tokenList.length; i++) {\r\n            if (tokenOwner[i]==owner) {\r\n                uri=string(abi.encodePacked(uri,tokenURIs[i]));\r\n                continue;\r\n            }\r\n        }    \r\n        return uri;\r\n    }\r\n\r\n    function getURIList(address owner) public view returns(string[] memory){\r\n        return tokenCollection[owner] ;\r\n    }\r\n\r\n    function getTokenID() public view returns (uint256){\r\n        return tokenList.length;\r\n    }\r\n\r\n    \r\n\r\n    function _checkOnERC721Received(address from, address to, uint256 tokenId, bytes memory _data) public view returns (bool)\r\n    {\r\n        /*if (to.isContract()) {\r\n            try ERC721TokenReceiver(to).onERC721Received(msg.sender, from, tokenId, _data) returns (bytes4 retval) {\r\n                return retval == ERC721TokenReceiver(to).onERC721Received.selector;\r\n            } catch (bytes memory reason) {\r\n                if (reason.length == 0) {\r\n                    revert(\"ERC721: transfer to non ERC721Receiver implementer\");\r\n                } else {\r\n                    // solhint-disable-next-line no-inline-assembly\r\n                    assembly {\r\n                        revert(add(32, reason), mload(reason))\r\n                    }\r\n                }\r\n            }\r\n        } else {\r\n            return true;\r\n        } \r\n    }\r\n\r\n    library Address {\r\n        function isContract(address account) internal view returns (bool) {\r\n            uint256 size;\r\n            assembly { size := extcodesize(account) }\r\n            return size > 0;\r\n        }*/\r\n        return true;\r\n    }\r\n}",
  "sourcePath": "C:\\Users\\Administrator\\Desktop\\tokenAccount\\contracts\\tokenTest.sol",
  "compiler": {
    "name": "solc",
    "version": "0.8.12+commit.f00d7308.Emscripten.clang"
  },
  "schemaVersion": "3.4.6",
  "updatedAt": "2022-04-05T15:35:31.197Z",
  "devdoc": {
    "kind": "dev",
    "methods": {
      "balanceOf(address)": {
        "details": "NFTs assigned to the zero address are considered invalid, and this  function throws for queries about the zero address.",
        "params": {
          "_owner": "An address for whom to query the balance"
        },
        "returns": {
          "_0": "The number of NFTs owned by `_owner`, possibly zero"
        }
      },
      "getApproved(uint256)": {
        "details": "Throws if `_tokenId` is not a valid NFT.",
        "params": {
          "_tokenId": "The NFT to find the approved address for"
        },
        "returns": {
          "_0": "The approved address for this NFT, or the zero address if there is none"
        }
      },
      "isApprovedForAll(address,address)": {
        "params": {
          "_operator": "The address that acts on behalf of the owner",
          "_owner": "The address that owns the NFTs"
        },
        "returns": {
          "_0": "True if `_operator` is an approved operator for `_owner`, false otherwise"
        }
      },
      "ownerOf(uint256)": {
        "details": "NFTs assigned to zero address are considered invalid, and queries  about them do throw.",
        "params": {
          "_tokenId": "The identifier for an NFT"
        },
        "returns": {
          "_0": "The address of the owner of the NFT"
        }
      },
      "safeTransferFrom(address,address,uint256)": {
        "details": "This works identically to the other function with an extra data parameter,  except this function just sets data to \"\".",
        "params": {
          "_from": "The current owner of the NFT",
          "_to": "The new owner",
          "_tokenId": "The NFT to transfer"
        }
      },
      "setApprovalForAll(address,bool)": {
        "details": "Emits the ApprovalForAll event. The contract MUST allow  multiple operators per owner.",
        "params": {
          "_approved": "True if the operator is approved, false to revoke approval",
          "_operator": "Address to add to the set of authorized operators"
        }
      },
      "transferFrom(address,address,uint256)": {
        "details": "Throws unless `msg.sender` is the current owner, an authorized  operator, or the approved address for this NFT. Throws if `_from` is  not the current owner. Throws if `_to` is the zero address. Throws if  `_tokenId` is not a valid NFT.",
        "params": {
          "_from": "The current owner of the NFT",
          "_to": "The new owner",
          "_tokenId": "The NFT to transfer"
        }
      }
    },
    "version": 1
  },
  "userdoc": {
    "kind": "user",
    "methods": {
      "balanceOf(address)": {
        "notice": "Count all NFTs assigned to an owner"
      },
      "getApproved(uint256)": {
        "notice": "Get the approved address for a single NFT"
      },
      "isApprovedForAll(address,address)": {
        "notice": "Query if an address is an authorized operator for another address"
      },
      "ownerOf(uint256)": {
        "notice": "Find the owner of an NFT"
      },
      "safeTransferFrom(address,address,uint256)": {
        "notice": "Transfers the ownership of an NFT from one address to another address"
      },
      "setApprovalForAll(address,bool)": {
        "notice": "Enable or disable approval for a third party (\"operator\") to manage  all of `msg.sender`'s assets"
      },
      "transferFrom(address,address,uint256)": {
        "notice": "Transfer ownership of an NFT -- THE CALLER IS RESPONSIBLE  TO CONFIRM THAT `_to` IS CAPABLE OF RECEIVING NFTS OR ELSE  THEY MAY BE PERMANENTLY LOST"
      }
    },
    "version": 1
  }
}